{
	"contracts/teste.sol": {
		"test": {
			"abi": [
				{
					"inputs": [
						{
							"internalType": "uint256",
							"name": "",
							"type": "uint256"
						}
					],
					"name": "Pessoas",
					"outputs": [
						{
							"internalType": "address",
							"name": "id",
							"type": "address"
						},
						{
							"internalType": "uint256",
							"name": "cpf",
							"type": "uint256"
						},
						{
							"internalType": "string",
							"name": "name",
							"type": "string"
						},
						{
							"internalType": "string",
							"name": "email",
							"type": "string"
						}
					],
					"stateMutability": "view",
					"type": "function"
				},
				{
					"inputs": [],
					"name": "add",
					"outputs": [
						{
							"internalType": "uint256",
							"name": "",
							"type": "uint256"
						}
					],
					"stateMutability": "view",
					"type": "function"
				},
				{
					"inputs": [
						{
							"internalType": "uint256",
							"name": "cpf",
							"type": "uint256"
						},
						{
							"internalType": "string",
							"name": "name",
							"type": "string"
						},
						{
							"internalType": "string",
							"name": "email",
							"type": "string"
						}
					],
					"name": "addp",
					"outputs": [],
					"stateMutability": "nonpayable",
					"type": "function"
				}
			],
			"devdoc": {
				"kind": "dev",
				"methods": {},
				"version": 1
			},
			"evm": {
				"assembly": "    /* \"contracts/teste.sol\":167:519  contract test{... */\n  mstore(0x40, 0x80)\n    /* \"contracts/teste.sol\":202:203  0 */\n  0x00\n    /* \"contracts/teste.sol\":185:203  uint public add =0 */\n  0x00\n  sstore\n    /* \"contracts/teste.sol\":167:519  contract test{... */\n  callvalue\n  dup1\n  iszero\n  tag_1\n  jumpi\n  revert(0x00, 0x00)\ntag_1:\n  pop\n  dataSize(sub_0)\n  dup1\n  dataOffset(sub_0)\n  0x00\n  codecopy\n  0x00\n  return\nstop\n\nsub_0: assembly {\n        /* \"contracts/teste.sol\":167:519  contract test{... */\n      mstore(0x40, 0x80)\n      callvalue\n      dup1\n      iszero\n      tag_1\n      jumpi\n      revert(0x00, 0x00)\n    tag_1:\n      pop\n      jumpi(tag_2, lt(calldatasize, 0x04))\n      shr(0xe0, calldataload(0x00))\n      dup1\n      0x0a4809d2\n      eq\n      tag_3\n      jumpi\n      dup1\n      0x4f2be91f\n      eq\n      tag_4\n      jumpi\n      dup1\n      0x9c92c1b3\n      eq\n      tag_5\n      jumpi\n    tag_2:\n      revert(0x00, 0x00)\n        /* \"contracts/teste.sol\":255:504  function addp(uint256 cpf, string memory name, string memory email)public{... */\n    tag_3:\n      tag_6\n      0x04\n      dup1\n      calldatasize\n      sub\n      dup2\n      add\n      swap1\n      tag_7\n      swap2\n      swap1\n      tag_8\n      jump\t// in\n    tag_7:\n      tag_9\n      jump\t// in\n    tag_6:\n      stop\n        /* \"contracts/teste.sol\":185:203  uint public add =0 */\n    tag_4:\n      tag_10\n      tag_11\n      jump\t// in\n    tag_10:\n      mload(0x40)\n      tag_12\n      swap2\n      swap1\n      tag_13\n      jump\t// in\n    tag_12:\n      mload(0x40)\n      dup1\n      swap2\n      sub\n      swap1\n      return\n        /* \"contracts/teste.sol\":206:248  mapping(uint256 => people ) public Pessoas */\n    tag_5:\n      tag_14\n      0x04\n      dup1\n      calldatasize\n      sub\n      dup2\n      add\n      swap1\n      tag_15\n      swap2\n      swap1\n      tag_16\n      jump\t// in\n    tag_15:\n      tag_17\n      jump\t// in\n    tag_14:\n      mload(0x40)\n      tag_18\n      swap5\n      swap4\n      swap3\n      swap2\n      swap1\n      tag_19\n      jump\t// in\n    tag_18:\n      mload(0x40)\n      dup1\n      swap2\n      sub\n      swap1\n      return\n        /* \"contracts/teste.sol\":255:504  function addp(uint256 cpf, string memory name, string memory email)public{... */\n    tag_9:\n        /* \"contracts/teste.sol\":331:355  people memory newPessoas */\n      tag_21\n      tag_22\n      jump\t// in\n    tag_21:\n        /* \"contracts/teste.sol\":376:386  msg.sender */\n      caller\n        /* \"contracts/teste.sol\":360:370  newPessoas */\n      dup2\n        /* \"contracts/teste.sol\":360:373  newPessoas.id */\n      0x00\n      add\n        /* \"contracts/teste.sol\":360:386  newPessoas.id = msg.sender */\n      swap1\n      0xffffffffffffffffffffffffffffffffffffffff\n      and\n      swap1\n      dup2\n      0xffffffffffffffffffffffffffffffffffffffff\n      and\n      dup2\n      mstore\n      pop\n      pop\n        /* \"contracts/teste.sol\":406:409  cpf */\n      dup4\n        /* \"contracts/teste.sol\":389:399  newPessoas */\n      dup2\n        /* \"contracts/teste.sol\":389:403  newPessoas.cpf */\n      0x20\n      add\n        /* \"contracts/teste.sol\":389:409  newPessoas.cpf = cpf */\n      dup2\n      dup2\n      mstore\n      pop\n      pop\n        /* \"contracts/teste.sol\":430:434  name */\n      dup3\n        /* \"contracts/teste.sol\":412:422  newPessoas */\n      dup2\n        /* \"contracts/teste.sol\":412:427  newPessoas.name */\n      0x40\n      add\n        /* \"contracts/teste.sol\":412:434  newPessoas.name = name */\n      dup2\n      swap1\n      mstore\n      pop\n        /* \"contracts/teste.sol\":457:462  email */\n      dup2\n        /* \"contracts/teste.sol\":438:448  newPessoas */\n      dup2\n        /* \"contracts/teste.sol\":438:454  newPessoas.email */\n      0x60\n      add\n        /* \"contracts/teste.sol\":438:462  newPessoas.email = email */\n      dup2\n      swap1\n      mstore\n      pop\n        /* \"contracts/teste.sol\":467:470  add */\n      0x00\n      0x00\n        /* \"contracts/teste.sol\":467:472  add++ */\n      dup2\n      sload\n      dup1\n      swap3\n      swap2\n      swap1\n      tag_23\n      swap1\n      tag_24\n      jump\t// in\n    tag_23:\n      swap2\n      swap1\n      pop\n      sstore\n      pop\n        /* \"contracts/teste.sol\":490:500  newPessoas */\n      dup1\n        /* \"contracts/teste.sol\":475:482  Pessoas */\n      0x01\n        /* \"contracts/teste.sol\":475:487  Pessoas[add] */\n      0x00\n        /* \"contracts/teste.sol\":483:486  add */\n      sload(0x00)\n        /* \"contracts/teste.sol\":475:487  Pessoas[add] */\n      dup2\n      mstore\n      0x20\n      add\n      swap1\n      dup2\n      mstore\n      0x20\n      add\n      0x00\n      keccak256\n        /* \"contracts/teste.sol\":475:500  Pessoas[add] = newPessoas */\n      0x00\n      dup3\n      add\n      mload\n      dup2\n      0x00\n      add\n      exp(0x0100, 0x00)\n      dup2\n      sload\n      dup2\n      0xffffffffffffffffffffffffffffffffffffffff\n      mul\n      not\n      and\n      swap1\n      dup4\n      0xffffffffffffffffffffffffffffffffffffffff\n      and\n      mul\n      or\n      swap1\n      sstore\n      pop\n      0x20\n      dup3\n      add\n      mload\n      dup2\n      0x01\n      add\n      sstore\n      0x40\n      dup3\n      add\n      mload\n      dup2\n      0x02\n      add\n      swap1\n      dup2\n      tag_25\n      swap2\n      swap1\n      tag_26\n      jump\t// in\n    tag_25:\n      pop\n      0x60\n      dup3\n      add\n      mload\n      dup2\n      0x03\n      add\n      swap1\n      dup2\n      tag_27\n      swap2\n      swap1\n      tag_26\n      jump\t// in\n    tag_27:\n      pop\n      swap1\n      pop\n      pop\n        /* \"contracts/teste.sol\":328:504  {... */\n      pop\n        /* \"contracts/teste.sol\":255:504  function addp(uint256 cpf, string memory name, string memory email)public{... */\n      pop\n      pop\n      pop\n      jump\t// out\n        /* \"contracts/teste.sol\":185:203  uint public add =0 */\n    tag_11:\n      sload(0x00)\n      dup2\n      jump\t// out\n        /* \"contracts/teste.sol\":206:248  mapping(uint256 => people ) public Pessoas */\n    tag_17:\n      mstore(0x20, 0x01)\n      dup1\n      0x00\n      mstore\n      keccak256(0x00, 0x40)\n      0x00\n      swap2\n      pop\n      swap1\n      pop\n      dup1\n      0x00\n      add\n      0x00\n      swap1\n      sload\n      swap1\n      0x0100\n      exp\n      swap1\n      div\n      0xffffffffffffffffffffffffffffffffffffffff\n      and\n      swap1\n      dup1\n      0x01\n      add\n      sload\n      swap1\n      dup1\n      0x02\n      add\n      dup1\n      sload\n      tag_28\n      swap1\n      tag_29\n      jump\t// in\n    tag_28:\n      dup1\n      0x1f\n      add\n      0x20\n      dup1\n      swap2\n      div\n      mul\n      0x20\n      add\n      mload(0x40)\n      swap1\n      dup2\n      add\n      0x40\n      mstore\n      dup1\n      swap3\n      swap2\n      swap1\n      dup2\n      dup2\n      mstore\n      0x20\n      add\n      dup3\n      dup1\n      sload\n      tag_30\n      swap1\n      tag_29\n      jump\t// in\n    tag_30:\n      dup1\n      iszero\n      tag_31\n      jumpi\n      dup1\n      0x1f\n      lt\n      tag_32\n      jumpi\n      0x0100\n      dup1\n      dup4\n      sload\n      div\n      mul\n      dup4\n      mstore\n      swap2\n      0x20\n      add\n      swap2\n      jump(tag_31)\n    tag_32:\n      dup3\n      add\n      swap2\n      swap1\n      0x00\n      mstore\n      keccak256(0x00, 0x20)\n      swap1\n    tag_33:\n      dup2\n      sload\n      dup2\n      mstore\n      swap1\n      0x01\n      add\n      swap1\n      0x20\n      add\n      dup1\n      dup4\n      gt\n      tag_33\n      jumpi\n      dup3\n      swap1\n      sub\n      0x1f\n      and\n      dup3\n      add\n      swap2\n    tag_31:\n      pop\n      pop\n      pop\n      pop\n      pop\n      swap1\n      dup1\n      0x03\n      add\n      dup1\n      sload\n      tag_34\n      swap1\n      tag_29\n      jump\t// in\n    tag_34:\n      dup1\n      0x1f\n      add\n      0x20\n      dup1\n      swap2\n      div\n      mul\n      0x20\n      add\n      mload(0x40)\n      swap1\n      dup2\n      add\n      0x40\n      mstore\n      dup1\n      swap3\n      swap2\n      swap1\n      dup2\n      dup2\n      mstore\n      0x20\n      add\n      dup3\n      dup1\n      sload\n      tag_35\n      swap1\n      tag_29\n      jump\t// in\n    tag_35:\n      dup1\n      iszero\n      tag_36\n      jumpi\n      dup1\n      0x1f\n      lt\n      tag_37\n      jumpi\n      0x0100\n      dup1\n      dup4\n      sload\n      div\n      mul\n      dup4\n      mstore\n      swap2\n      0x20\n      add\n      swap2\n      jump(tag_36)\n    tag_37:\n      dup3\n      add\n      swap2\n      swap1\n      0x00\n      mstore\n      keccak256(0x00, 0x20)\n      swap1\n    tag_38:\n      dup2\n      sload\n      dup2\n      mstore\n      swap1\n      0x01\n      add\n      swap1\n      0x20\n      add\n      dup1\n      dup4\n      gt\n      tag_38\n      jumpi\n      dup3\n      swap1\n      sub\n      0x1f\n      and\n      dup3\n      add\n      swap2\n    tag_36:\n      pop\n      pop\n      pop\n      pop\n      pop\n      swap1\n      pop\n      dup5\n      jump\t// out\n    tag_22:\n      mload(0x40)\n      dup1\n      0x80\n      add\n      0x40\n      mstore\n      dup1\n      and(0xffffffffffffffffffffffffffffffffffffffff, 0x00)\n      dup2\n      mstore\n      0x20\n      add\n      0x00\n      dup2\n      mstore\n      0x20\n      add\n      0x60\n      dup2\n      mstore\n      0x20\n      add\n      0x60\n      dup2\n      mstore\n      pop\n      swap1\n      jump\t// out\n        /* \"#utility.yul\":7:82   */\n    tag_39:\n        /* \"#utility.yul\":40:46   */\n      0x00\n        /* \"#utility.yul\":73:75   */\n      0x40\n        /* \"#utility.yul\":67:76   */\n      mload\n        /* \"#utility.yul\":57:76   */\n      swap1\n      pop\n        /* \"#utility.yul\":7:82   */\n      swap1\n      jump\t// out\n        /* \"#utility.yul\":88:205   */\n    tag_40:\n        /* \"#utility.yul\":197:198   */\n      0x00\n        /* \"#utility.yul\":194:195   */\n      0x00\n        /* \"#utility.yul\":187:199   */\n      revert\n        /* \"#utility.yul\":211:328   */\n    tag_41:\n        /* \"#utility.yul\":320:321   */\n      0x00\n        /* \"#utility.yul\":317:318   */\n      0x00\n        /* \"#utility.yul\":310:322   */\n      revert\n        /* \"#utility.yul\":334:411   */\n    tag_42:\n        /* \"#utility.yul\":371:378   */\n      0x00\n        /* \"#utility.yul\":400:405   */\n      dup2\n        /* \"#utility.yul\":389:405   */\n      swap1\n      pop\n        /* \"#utility.yul\":334:411   */\n      swap2\n      swap1\n      pop\n      jump\t// out\n        /* \"#utility.yul\":417:539   */\n    tag_43:\n        /* \"#utility.yul\":490:514   */\n      tag_86\n        /* \"#utility.yul\":508:513   */\n      dup2\n        /* \"#utility.yul\":490:514   */\n      tag_42\n      jump\t// in\n    tag_86:\n        /* \"#utility.yul\":483:488   */\n      dup2\n        /* \"#utility.yul\":480:515   */\n      eq\n        /* \"#utility.yul\":470:533   */\n      tag_87\n      jumpi\n        /* \"#utility.yul\":529:530   */\n      0x00\n        /* \"#utility.yul\":526:527   */\n      0x00\n        /* \"#utility.yul\":519:531   */\n      revert\n        /* \"#utility.yul\":470:533   */\n    tag_87:\n        /* \"#utility.yul\":417:539   */\n      pop\n      jump\t// out\n        /* \"#utility.yul\":545:684   */\n    tag_44:\n        /* \"#utility.yul\":591:596   */\n      0x00\n        /* \"#utility.yul\":629:635   */\n      dup2\n        /* \"#utility.yul\":616:636   */\n      calldataload\n        /* \"#utility.yul\":607:636   */\n      swap1\n      pop\n        /* \"#utility.yul\":645:678   */\n      tag_89\n        /* \"#utility.yul\":672:677   */\n      dup2\n        /* \"#utility.yul\":645:678   */\n      tag_43\n      jump\t// in\n    tag_89:\n        /* \"#utility.yul\":545:684   */\n      swap3\n      swap2\n      pop\n      pop\n      jump\t// out\n        /* \"#utility.yul\":690:807   */\n    tag_45:\n        /* \"#utility.yul\":799:800   */\n      0x00\n        /* \"#utility.yul\":796:797   */\n      0x00\n        /* \"#utility.yul\":789:801   */\n      revert\n        /* \"#utility.yul\":813:930   */\n    tag_46:\n        /* \"#utility.yul\":922:923   */\n      0x00\n        /* \"#utility.yul\":919:920   */\n      0x00\n        /* \"#utility.yul\":912:924   */\n      revert\n        /* \"#utility.yul\":936:1038   */\n    tag_47:\n        /* \"#utility.yul\":977:983   */\n      0x00\n        /* \"#utility.yul\":1028:1030   */\n      0x1f\n        /* \"#utility.yul\":1024:1031   */\n      not\n        /* \"#utility.yul\":1019:1021   */\n      0x1f\n        /* \"#utility.yul\":1012:1017   */\n      dup4\n        /* \"#utility.yul\":1008:1022   */\n      add\n        /* \"#utility.yul\":1004:1032   */\n      and\n        /* \"#utility.yul\":994:1032   */\n      swap1\n      pop\n        /* \"#utility.yul\":936:1038   */\n      swap2\n      swap1\n      pop\n      jump\t// out\n        /* \"#utility.yul\":1044:1224   */\n    tag_48:\n        /* \"#utility.yul\":1092:1169   */\n      0x4e487b7100000000000000000000000000000000000000000000000000000000\n        /* \"#utility.yul\":1089:1090   */\n      0x00\n        /* \"#utility.yul\":1082:1170   */\n      mstore\n        /* \"#utility.yul\":1189:1193   */\n      0x41\n        /* \"#utility.yul\":1186:1187   */\n      0x04\n        /* \"#utility.yul\":1179:1194   */\n      mstore\n        /* \"#utility.yul\":1213:1217   */\n      0x24\n        /* \"#utility.yul\":1210:1211   */\n      0x00\n        /* \"#utility.yul\":1203:1218   */\n      revert\n        /* \"#utility.yul\":1230:1511   */\n    tag_49:\n        /* \"#utility.yul\":1313:1340   */\n      tag_95\n        /* \"#utility.yul\":1335:1339   */\n      dup3\n        /* \"#utility.yul\":1313:1340   */\n      tag_47\n      jump\t// in\n    tag_95:\n        /* \"#utility.yul\":1305:1311   */\n      dup2\n        /* \"#utility.yul\":1301:1341   */\n      add\n        /* \"#utility.yul\":1443:1449   */\n      dup2\n        /* \"#utility.yul\":1431:1441   */\n      dup2\n        /* \"#utility.yul\":1428:1450   */\n      lt\n        /* \"#utility.yul\":1407:1425   */\n      0xffffffffffffffff\n        /* \"#utility.yul\":1395:1405   */\n      dup3\n        /* \"#utility.yul\":1392:1426   */\n      gt\n        /* \"#utility.yul\":1389:1451   */\n      or\n        /* \"#utility.yul\":1386:1474   */\n      iszero\n      tag_96\n      jumpi\n        /* \"#utility.yul\":1454:1472   */\n      tag_97\n      tag_48\n      jump\t// in\n    tag_97:\n        /* \"#utility.yul\":1386:1474   */\n    tag_96:\n        /* \"#utility.yul\":1494:1504   */\n      dup1\n        /* \"#utility.yul\":1490:1492   */\n      0x40\n        /* \"#utility.yul\":1483:1505   */\n      mstore\n        /* \"#utility.yul\":1273:1511   */\n      pop\n        /* \"#utility.yul\":1230:1511   */\n      pop\n      pop\n      jump\t// out\n        /* \"#utility.yul\":1517:1646   */\n    tag_50:\n        /* \"#utility.yul\":1551:1557   */\n      0x00\n        /* \"#utility.yul\":1578:1598   */\n      tag_99\n      tag_39\n      jump\t// in\n    tag_99:\n        /* \"#utility.yul\":1568:1598   */\n      swap1\n      pop\n        /* \"#utility.yul\":1607:1640   */\n      tag_100\n        /* \"#utility.yul\":1635:1639   */\n      dup3\n        /* \"#utility.yul\":1627:1633   */\n      dup3\n        /* \"#utility.yul\":1607:1640   */\n      tag_49\n      jump\t// in\n    tag_100:\n        /* \"#utility.yul\":1517:1646   */\n      swap2\n      swap1\n      pop\n      jump\t// out\n        /* \"#utility.yul\":1652:1960   */\n    tag_51:\n        /* \"#utility.yul\":1714:1718   */\n      0x00\n        /* \"#utility.yul\":1804:1822   */\n      0xffffffffffffffff\n        /* \"#utility.yul\":1796:1802   */\n      dup3\n        /* \"#utility.yul\":1793:1823   */\n      gt\n        /* \"#utility.yul\":1790:1846   */\n      iszero\n      tag_102\n      jumpi\n        /* \"#utility.yul\":1826:1844   */\n      tag_103\n      tag_48\n      jump\t// in\n    tag_103:\n        /* \"#utility.yul\":1790:1846   */\n    tag_102:\n        /* \"#utility.yul\":1864:1893   */\n      tag_104\n        /* \"#utility.yul\":1886:1892   */\n      dup3\n        /* \"#utility.yul\":1864:1893   */\n      tag_47\n      jump\t// in\n    tag_104:\n        /* \"#utility.yul\":1856:1893   */\n      swap1\n      pop\n        /* \"#utility.yul\":1948:1952   */\n      0x20\n        /* \"#utility.yul\":1942:1946   */\n      dup2\n        /* \"#utility.yul\":1938:1953   */\n      add\n        /* \"#utility.yul\":1930:1953   */\n      swap1\n      pop\n        /* \"#utility.yul\":1652:1960   */\n      swap2\n      swap1\n      pop\n      jump\t// out\n        /* \"#utility.yul\":1966:2114   */\n    tag_52:\n        /* \"#utility.yul\":2064:2070   */\n      dup3\n        /* \"#utility.yul\":2059:2062   */\n      dup2\n        /* \"#utility.yul\":2054:2057   */\n      dup4\n        /* \"#utility.yul\":2041:2071   */\n      calldatacopy\n        /* \"#utility.yul\":2105:2106   */\n      0x00\n        /* \"#utility.yul\":2096:2102   */\n      dup4\n        /* \"#utility.yul\":2091:2094   */\n      dup4\n        /* \"#utility.yul\":2087:2103   */\n      add\n        /* \"#utility.yul\":2080:2107   */\n      mstore\n        /* \"#utility.yul\":1966:2114   */\n      pop\n      pop\n      pop\n      jump\t// out\n        /* \"#utility.yul\":2120:2545   */\n    tag_53:\n        /* \"#utility.yul\":2198:2203   */\n      0x00\n        /* \"#utility.yul\":2223:2289   */\n      tag_107\n        /* \"#utility.yul\":2239:2288   */\n      tag_108\n        /* \"#utility.yul\":2281:2287   */\n      dup5\n        /* \"#utility.yul\":2239:2288   */\n      tag_51\n      jump\t// in\n    tag_108:\n        /* \"#utility.yul\":2223:2289   */\n      tag_50\n      jump\t// in\n    tag_107:\n        /* \"#utility.yul\":2214:2289   */\n      swap1\n      pop\n        /* \"#utility.yul\":2312:2318   */\n      dup3\n        /* \"#utility.yul\":2305:2310   */\n      dup2\n        /* \"#utility.yul\":2298:2319   */\n      mstore\n        /* \"#utility.yul\":2350:2354   */\n      0x20\n        /* \"#utility.yul\":2343:2348   */\n      dup2\n        /* \"#utility.yul\":2339:2355   */\n      add\n        /* \"#utility.yul\":2388:2391   */\n      dup5\n        /* \"#utility.yul\":2379:2385   */\n      dup5\n        /* \"#utility.yul\":2374:2377   */\n      dup5\n        /* \"#utility.yul\":2370:2386   */\n      add\n        /* \"#utility.yul\":2367:2392   */\n      gt\n        /* \"#utility.yul\":2364:2476   */\n      iszero\n      tag_109\n      jumpi\n        /* \"#utility.yul\":2395:2474   */\n      tag_110\n      tag_46\n      jump\t// in\n    tag_110:\n        /* \"#utility.yul\":2364:2476   */\n    tag_109:\n        /* \"#utility.yul\":2485:2539   */\n      tag_111\n        /* \"#utility.yul\":2532:2538   */\n      dup5\n        /* \"#utility.yul\":2527:2530   */\n      dup3\n        /* \"#utility.yul\":2522:2525   */\n      dup6\n        /* \"#utility.yul\":2485:2539   */\n      tag_52\n      jump\t// in\n    tag_111:\n        /* \"#utility.yul\":2204:2545   */\n      pop\n        /* \"#utility.yul\":2120:2545   */\n      swap4\n      swap3\n      pop\n      pop\n      pop\n      jump\t// out\n        /* \"#utility.yul\":2565:2905   */\n    tag_54:\n        /* \"#utility.yul\":2621:2626   */\n      0x00\n        /* \"#utility.yul\":2670:2673   */\n      dup3\n        /* \"#utility.yul\":2663:2667   */\n      0x1f\n        /* \"#utility.yul\":2655:2661   */\n      dup4\n        /* \"#utility.yul\":2651:2668   */\n      add\n        /* \"#utility.yul\":2647:2674   */\n      slt\n        /* \"#utility.yul\":2637:2759   */\n      tag_113\n      jumpi\n        /* \"#utility.yul\":2678:2757   */\n      tag_114\n      tag_45\n      jump\t// in\n    tag_114:\n        /* \"#utility.yul\":2637:2759   */\n    tag_113:\n        /* \"#utility.yul\":2795:2801   */\n      dup2\n        /* \"#utility.yul\":2782:2802   */\n      calldataload\n        /* \"#utility.yul\":2820:2899   */\n      tag_115\n        /* \"#utility.yul\":2895:2898   */\n      dup5\n        /* \"#utility.yul\":2887:2893   */\n      dup3\n        /* \"#utility.yul\":2880:2884   */\n      0x20\n        /* \"#utility.yul\":2872:2878   */\n      dup7\n        /* \"#utility.yul\":2868:2885   */\n      add\n        /* \"#utility.yul\":2820:2899   */\n      tag_53\n      jump\t// in\n    tag_115:\n        /* \"#utility.yul\":2811:2899   */\n      swap2\n      pop\n        /* \"#utility.yul\":2627:2905   */\n      pop\n        /* \"#utility.yul\":2565:2905   */\n      swap3\n      swap2\n      pop\n      pop\n      jump\t// out\n        /* \"#utility.yul\":2911:3890   */\n    tag_8:\n        /* \"#utility.yul\":3008:3014   */\n      0x00\n        /* \"#utility.yul\":3016:3022   */\n      0x00\n        /* \"#utility.yul\":3024:3030   */\n      0x00\n        /* \"#utility.yul\":3073:3075   */\n      0x60\n        /* \"#utility.yul\":3061:3070   */\n      dup5\n        /* \"#utility.yul\":3052:3059   */\n      dup7\n        /* \"#utility.yul\":3048:3071   */\n      sub\n        /* \"#utility.yul\":3044:3076   */\n      slt\n        /* \"#utility.yul\":3041:3160   */\n      iszero\n      tag_117\n      jumpi\n        /* \"#utility.yul\":3079:3158   */\n      tag_118\n      tag_40\n      jump\t// in\n    tag_118:\n        /* \"#utility.yul\":3041:3160   */\n    tag_117:\n        /* \"#utility.yul\":3199:3200   */\n      0x00\n        /* \"#utility.yul\":3224:3277   */\n      tag_119\n        /* \"#utility.yul\":3269:3276   */\n      dup7\n        /* \"#utility.yul\":3260:3266   */\n      dup3\n        /* \"#utility.yul\":3249:3258   */\n      dup8\n        /* \"#utility.yul\":3245:3267   */\n      add\n        /* \"#utility.yul\":3224:3277   */\n      tag_44\n      jump\t// in\n    tag_119:\n        /* \"#utility.yul\":3214:3277   */\n      swap4\n      pop\n        /* \"#utility.yul\":3170:3287   */\n      pop\n        /* \"#utility.yul\":3354:3356   */\n      0x20\n        /* \"#utility.yul\":3343:3352   */\n      dup5\n        /* \"#utility.yul\":3339:3357   */\n      add\n        /* \"#utility.yul\":3326:3358   */\n      calldataload\n        /* \"#utility.yul\":3385:3403   */\n      0xffffffffffffffff\n        /* \"#utility.yul\":3377:3383   */\n      dup2\n        /* \"#utility.yul\":3374:3404   */\n      gt\n        /* \"#utility.yul\":3371:3488   */\n      iszero\n      tag_120\n      jumpi\n        /* \"#utility.yul\":3407:3486   */\n      tag_121\n      tag_41\n      jump\t// in\n    tag_121:\n        /* \"#utility.yul\":3371:3488   */\n    tag_120:\n        /* \"#utility.yul\":3512:3575   */\n      tag_122\n        /* \"#utility.yul\":3567:3574   */\n      dup7\n        /* \"#utility.yul\":3558:3564   */\n      dup3\n        /* \"#utility.yul\":3547:3556   */\n      dup8\n        /* \"#utility.yul\":3543:3565   */\n      add\n        /* \"#utility.yul\":3512:3575   */\n      tag_54\n      jump\t// in\n    tag_122:\n        /* \"#utility.yul\":3502:3575   */\n      swap3\n      pop\n        /* \"#utility.yul\":3297:3585   */\n      pop\n        /* \"#utility.yul\":3652:3654   */\n      0x40\n        /* \"#utility.yul\":3641:3650   */\n      dup5\n        /* \"#utility.yul\":3637:3655   */\n      add\n        /* \"#utility.yul\":3624:3656   */\n      calldataload\n        /* \"#utility.yul\":3683:3701   */\n      0xffffffffffffffff\n        /* \"#utility.yul\":3675:3681   */\n      dup2\n        /* \"#utility.yul\":3672:3702   */\n      gt\n        /* \"#utility.yul\":3669:3786   */\n      iszero\n      tag_123\n      jumpi\n        /* \"#utility.yul\":3705:3784   */\n      tag_124\n      tag_41\n      jump\t// in\n    tag_124:\n        /* \"#utility.yul\":3669:3786   */\n    tag_123:\n        /* \"#utility.yul\":3810:3873   */\n      tag_125\n        /* \"#utility.yul\":3865:3872   */\n      dup7\n        /* \"#utility.yul\":3856:3862   */\n      dup3\n        /* \"#utility.yul\":3845:3854   */\n      dup8\n        /* \"#utility.yul\":3841:3863   */\n      add\n        /* \"#utility.yul\":3810:3873   */\n      tag_54\n      jump\t// in\n    tag_125:\n        /* \"#utility.yul\":3800:3873   */\n      swap2\n      pop\n        /* \"#utility.yul\":3595:3883   */\n      pop\n        /* \"#utility.yul\":2911:3890   */\n      swap3\n      pop\n      swap3\n      pop\n      swap3\n      jump\t// out\n        /* \"#utility.yul\":3896:4014   */\n    tag_55:\n        /* \"#utility.yul\":3983:4007   */\n      tag_127\n        /* \"#utility.yul\":4001:4006   */\n      dup2\n        /* \"#utility.yul\":3983:4007   */\n      tag_42\n      jump\t// in\n    tag_127:\n        /* \"#utility.yul\":3978:3981   */\n      dup3\n        /* \"#utility.yul\":3971:4008   */\n      mstore\n        /* \"#utility.yul\":3896:4014   */\n      pop\n      pop\n      jump\t// out\n        /* \"#utility.yul\":4020:4242   */\n    tag_13:\n        /* \"#utility.yul\":4113:4117   */\n      0x00\n        /* \"#utility.yul\":4151:4153   */\n      0x20\n        /* \"#utility.yul\":4140:4149   */\n      dup3\n        /* \"#utility.yul\":4136:4154   */\n      add\n        /* \"#utility.yul\":4128:4154   */\n      swap1\n      pop\n        /* \"#utility.yul\":4164:4235   */\n      tag_129\n        /* \"#utility.yul\":4232:4233   */\n      0x00\n        /* \"#utility.yul\":4221:4230   */\n      dup4\n        /* \"#utility.yul\":4217:4234   */\n      add\n        /* \"#utility.yul\":4208:4214   */\n      dup5\n        /* \"#utility.yul\":4164:4235   */\n      tag_55\n      jump\t// in\n    tag_129:\n        /* \"#utility.yul\":4020:4242   */\n      swap3\n      swap2\n      pop\n      pop\n      jump\t// out\n        /* \"#utility.yul\":4248:4577   */\n    tag_16:\n        /* \"#utility.yul\":4307:4313   */\n      0x00\n        /* \"#utility.yul\":4356:4358   */\n      0x20\n        /* \"#utility.yul\":4344:4353   */\n      dup3\n        /* \"#utility.yul\":4335:4342   */\n      dup5\n        /* \"#utility.yul\":4331:4354   */\n      sub\n        /* \"#utility.yul\":4327:4359   */\n      slt\n        /* \"#utility.yul\":4324:4443   */\n      iszero\n      tag_131\n      jumpi\n        /* \"#utility.yul\":4362:4441   */\n      tag_132\n      tag_40\n      jump\t// in\n    tag_132:\n        /* \"#utility.yul\":4324:4443   */\n    tag_131:\n        /* \"#utility.yul\":4482:4483   */\n      0x00\n        /* \"#utility.yul\":4507:4560   */\n      tag_133\n        /* \"#utility.yul\":4552:4559   */\n      dup5\n        /* \"#utility.yul\":4543:4549   */\n      dup3\n        /* \"#utility.yul\":4532:4541   */\n      dup6\n        /* \"#utility.yul\":4528:4550   */\n      add\n        /* \"#utility.yul\":4507:4560   */\n      tag_44\n      jump\t// in\n    tag_133:\n        /* \"#utility.yul\":4497:4560   */\n      swap2\n      pop\n        /* \"#utility.yul\":4453:4570   */\n      pop\n        /* \"#utility.yul\":4248:4577   */\n      swap3\n      swap2\n      pop\n      pop\n      jump\t// out\n        /* \"#utility.yul\":4583:4709   */\n    tag_56:\n        /* \"#utility.yul\":4620:4627   */\n      0x00\n        /* \"#utility.yul\":4660:4702   */\n      0xffffffffffffffffffffffffffffffffffffffff\n        /* \"#utility.yul\":4653:4658   */\n      dup3\n        /* \"#utility.yul\":4649:4703   */\n      and\n        /* \"#utility.yul\":4638:4703   */\n      swap1\n      pop\n        /* \"#utility.yul\":4583:4709   */\n      swap2\n      swap1\n      pop\n      jump\t// out\n        /* \"#utility.yul\":4715:4811   */\n    tag_57:\n        /* \"#utility.yul\":4752:4759   */\n      0x00\n        /* \"#utility.yul\":4781:4805   */\n      tag_136\n        /* \"#utility.yul\":4799:4804   */\n      dup3\n        /* \"#utility.yul\":4781:4805   */\n      tag_56\n      jump\t// in\n    tag_136:\n        /* \"#utility.yul\":4770:4805   */\n      swap1\n      pop\n        /* \"#utility.yul\":4715:4811   */\n      swap2\n      swap1\n      pop\n      jump\t// out\n        /* \"#utility.yul\":4817:4935   */\n    tag_58:\n        /* \"#utility.yul\":4904:4928   */\n      tag_138\n        /* \"#utility.yul\":4922:4927   */\n      dup2\n        /* \"#utility.yul\":4904:4928   */\n      tag_57\n      jump\t// in\n    tag_138:\n        /* \"#utility.yul\":4899:4902   */\n      dup3\n        /* \"#utility.yul\":4892:4929   */\n      mstore\n        /* \"#utility.yul\":4817:4935   */\n      pop\n      pop\n      jump\t// out\n        /* \"#utility.yul\":4941:5040   */\n    tag_59:\n        /* \"#utility.yul\":4993:4999   */\n      0x00\n        /* \"#utility.yul\":5027:5032   */\n      dup2\n        /* \"#utility.yul\":5021:5033   */\n      mload\n        /* \"#utility.yul\":5011:5033   */\n      swap1\n      pop\n        /* \"#utility.yul\":4941:5040   */\n      swap2\n      swap1\n      pop\n      jump\t// out\n        /* \"#utility.yul\":5046:5215   */\n    tag_60:\n        /* \"#utility.yul\":5130:5141   */\n      0x00\n        /* \"#utility.yul\":5164:5170   */\n      dup3\n        /* \"#utility.yul\":5159:5162   */\n      dup3\n        /* \"#utility.yul\":5152:5171   */\n      mstore\n        /* \"#utility.yul\":5204:5208   */\n      0x20\n        /* \"#utility.yul\":5199:5202   */\n      dup3\n        /* \"#utility.yul\":5195:5209   */\n      add\n        /* \"#utility.yul\":5180:5209   */\n      swap1\n      pop\n        /* \"#utility.yul\":5046:5215   */\n      swap3\n      swap2\n      pop\n      pop\n      jump\t// out\n        /* \"#utility.yul\":5221:5360   */\n    tag_61:\n        /* \"#utility.yul\":5310:5316   */\n      dup3\n        /* \"#utility.yul\":5305:5308   */\n      dup2\n        /* \"#utility.yul\":5300:5303   */\n      dup4\n        /* \"#utility.yul\":5294:5317   */\n      mcopy\n        /* \"#utility.yul\":5351:5352   */\n      0x00\n        /* \"#utility.yul\":5342:5348   */\n      dup4\n        /* \"#utility.yul\":5337:5340   */\n      dup4\n        /* \"#utility.yul\":5333:5349   */\n      add\n        /* \"#utility.yul\":5326:5353   */\n      mstore\n        /* \"#utility.yul\":5221:5360   */\n      pop\n      pop\n      pop\n      jump\t// out\n        /* \"#utility.yul\":5366:5743   */\n    tag_62:\n        /* \"#utility.yul\":5454:5457   */\n      0x00\n        /* \"#utility.yul\":5482:5521   */\n      tag_143\n        /* \"#utility.yul\":5515:5520   */\n      dup3\n        /* \"#utility.yul\":5482:5521   */\n      tag_59\n      jump\t// in\n    tag_143:\n        /* \"#utility.yul\":5537:5608   */\n      tag_144\n        /* \"#utility.yul\":5601:5607   */\n      dup2\n        /* \"#utility.yul\":5596:5599   */\n      dup6\n        /* \"#utility.yul\":5537:5608   */\n      tag_60\n      jump\t// in\n    tag_144:\n        /* \"#utility.yul\":5530:5608   */\n      swap4\n      pop\n        /* \"#utility.yul\":5617:5682   */\n      tag_145\n        /* \"#utility.yul\":5675:5681   */\n      dup2\n        /* \"#utility.yul\":5670:5673   */\n      dup6\n        /* \"#utility.yul\":5663:5667   */\n      0x20\n        /* \"#utility.yul\":5656:5661   */\n      dup7\n        /* \"#utility.yul\":5652:5668   */\n      add\n        /* \"#utility.yul\":5617:5682   */\n      tag_61\n      jump\t// in\n    tag_145:\n        /* \"#utility.yul\":5707:5736   */\n      tag_146\n        /* \"#utility.yul\":5729:5735   */\n      dup2\n        /* \"#utility.yul\":5707:5736   */\n      tag_47\n      jump\t// in\n    tag_146:\n        /* \"#utility.yul\":5702:5705   */\n      dup5\n        /* \"#utility.yul\":5698:5737   */\n      add\n        /* \"#utility.yul\":5691:5737   */\n      swap2\n      pop\n        /* \"#utility.yul\":5458:5743   */\n      pop\n        /* \"#utility.yul\":5366:5743   */\n      swap3\n      swap2\n      pop\n      pop\n      jump\t// out\n        /* \"#utility.yul\":5749:6484   */\n    tag_19:\n        /* \"#utility.yul\":5966:5970   */\n      0x00\n        /* \"#utility.yul\":6004:6007   */\n      0x80\n        /* \"#utility.yul\":5993:6002   */\n      dup3\n        /* \"#utility.yul\":5989:6008   */\n      add\n        /* \"#utility.yul\":5981:6008   */\n      swap1\n      pop\n        /* \"#utility.yul\":6018:6089   */\n      tag_148\n        /* \"#utility.yul\":6086:6087   */\n      0x00\n        /* \"#utility.yul\":6075:6084   */\n      dup4\n        /* \"#utility.yul\":6071:6088   */\n      add\n        /* \"#utility.yul\":6062:6068   */\n      dup8\n        /* \"#utility.yul\":6018:6089   */\n      tag_58\n      jump\t// in\n    tag_148:\n        /* \"#utility.yul\":6099:6171   */\n      tag_149\n        /* \"#utility.yul\":6167:6169   */\n      0x20\n        /* \"#utility.yul\":6156:6165   */\n      dup4\n        /* \"#utility.yul\":6152:6170   */\n      add\n        /* \"#utility.yul\":6143:6149   */\n      dup7\n        /* \"#utility.yul\":6099:6171   */\n      tag_55\n      jump\t// in\n    tag_149:\n        /* \"#utility.yul\":6218:6227   */\n      dup2\n        /* \"#utility.yul\":6212:6216   */\n      dup2\n        /* \"#utility.yul\":6208:6228   */\n      sub\n        /* \"#utility.yul\":6203:6205   */\n      0x40\n        /* \"#utility.yul\":6192:6201   */\n      dup4\n        /* \"#utility.yul\":6188:6206   */\n      add\n        /* \"#utility.yul\":6181:6229   */\n      mstore\n        /* \"#utility.yul\":6246:6324   */\n      tag_150\n        /* \"#utility.yul\":6319:6323   */\n      dup2\n        /* \"#utility.yul\":6310:6316   */\n      dup6\n        /* \"#utility.yul\":6246:6324   */\n      tag_62\n      jump\t// in\n    tag_150:\n        /* \"#utility.yul\":6238:6324   */\n      swap1\n      pop\n        /* \"#utility.yul\":6371:6380   */\n      dup2\n        /* \"#utility.yul\":6365:6369   */\n      dup2\n        /* \"#utility.yul\":6361:6381   */\n      sub\n        /* \"#utility.yul\":6356:6358   */\n      0x60\n        /* \"#utility.yul\":6345:6354   */\n      dup4\n        /* \"#utility.yul\":6341:6359   */\n      add\n        /* \"#utility.yul\":6334:6382   */\n      mstore\n        /* \"#utility.yul\":6399:6477   */\n      tag_151\n        /* \"#utility.yul\":6472:6476   */\n      dup2\n        /* \"#utility.yul\":6463:6469   */\n      dup5\n        /* \"#utility.yul\":6399:6477   */\n      tag_62\n      jump\t// in\n    tag_151:\n        /* \"#utility.yul\":6391:6477   */\n      swap1\n      pop\n        /* \"#utility.yul\":5749:6484   */\n      swap6\n      swap5\n      pop\n      pop\n      pop\n      pop\n      pop\n      jump\t// out\n        /* \"#utility.yul\":6490:6670   */\n    tag_63:\n        /* \"#utility.yul\":6538:6615   */\n      0x4e487b7100000000000000000000000000000000000000000000000000000000\n        /* \"#utility.yul\":6535:6536   */\n      0x00\n        /* \"#utility.yul\":6528:6616   */\n      mstore\n        /* \"#utility.yul\":6635:6639   */\n      0x11\n        /* \"#utility.yul\":6632:6633   */\n      0x04\n        /* \"#utility.yul\":6625:6640   */\n      mstore\n        /* \"#utility.yul\":6659:6663   */\n      0x24\n        /* \"#utility.yul\":6656:6657   */\n      0x00\n        /* \"#utility.yul\":6649:6664   */\n      revert\n        /* \"#utility.yul\":6676:6909   */\n    tag_24:\n        /* \"#utility.yul\":6715:6718   */\n      0x00\n        /* \"#utility.yul\":6738:6762   */\n      tag_154\n        /* \"#utility.yul\":6756:6761   */\n      dup3\n        /* \"#utility.yul\":6738:6762   */\n      tag_42\n      jump\t// in\n    tag_154:\n        /* \"#utility.yul\":6729:6762   */\n      swap2\n      pop\n        /* \"#utility.yul\":6784:6850   */\n      0xffffffffffffffffffffffffffffffffffffffffffffffffffffffffffffffff\n        /* \"#utility.yul\":6777:6782   */\n      dup3\n        /* \"#utility.yul\":6774:6851   */\n      sub\n        /* \"#utility.yul\":6771:6874   */\n      tag_155\n      jumpi\n        /* \"#utility.yul\":6854:6872   */\n      tag_156\n      tag_63\n      jump\t// in\n    tag_156:\n        /* \"#utility.yul\":6771:6874   */\n    tag_155:\n        /* \"#utility.yul\":6901:6902   */\n      0x01\n        /* \"#utility.yul\":6894:6899   */\n      dup3\n        /* \"#utility.yul\":6890:6903   */\n      add\n        /* \"#utility.yul\":6883:6903   */\n      swap1\n      pop\n        /* \"#utility.yul\":6676:6909   */\n      swap2\n      swap1\n      pop\n      jump\t// out\n        /* \"#utility.yul\":6915:7095   */\n    tag_64:\n        /* \"#utility.yul\":6963:7040   */\n      0x4e487b7100000000000000000000000000000000000000000000000000000000\n        /* \"#utility.yul\":6960:6961   */\n      0x00\n        /* \"#utility.yul\":6953:7041   */\n      mstore\n        /* \"#utility.yul\":7060:7064   */\n      0x22\n        /* \"#utility.yul\":7057:7058   */\n      0x04\n        /* \"#utility.yul\":7050:7065   */\n      mstore\n        /* \"#utility.yul\":7084:7088   */\n      0x24\n        /* \"#utility.yul\":7081:7082   */\n      0x00\n        /* \"#utility.yul\":7074:7089   */\n      revert\n        /* \"#utility.yul\":7101:7421   */\n    tag_29:\n        /* \"#utility.yul\":7145:7151   */\n      0x00\n        /* \"#utility.yul\":7182:7183   */\n      0x02\n        /* \"#utility.yul\":7176:7180   */\n      dup3\n        /* \"#utility.yul\":7172:7184   */\n      div\n        /* \"#utility.yul\":7162:7184   */\n      swap1\n      pop\n        /* \"#utility.yul\":7229:7230   */\n      0x01\n        /* \"#utility.yul\":7223:7227   */\n      dup3\n        /* \"#utility.yul\":7219:7231   */\n      and\n        /* \"#utility.yul\":7250:7268   */\n      dup1\n        /* \"#utility.yul\":7240:7321   */\n      tag_159\n      jumpi\n        /* \"#utility.yul\":7306:7310   */\n      0x7f\n        /* \"#utility.yul\":7298:7304   */\n      dup3\n        /* \"#utility.yul\":7294:7311   */\n      and\n        /* \"#utility.yul\":7284:7311   */\n      swap2\n      pop\n        /* \"#utility.yul\":7240:7321   */\n    tag_159:\n        /* \"#utility.yul\":7368:7370   */\n      0x20\n        /* \"#utility.yul\":7360:7366   */\n      dup3\n        /* \"#utility.yul\":7357:7371   */\n      lt\n        /* \"#utility.yul\":7337:7355   */\n      dup2\n        /* \"#utility.yul\":7334:7372   */\n      sub\n        /* \"#utility.yul\":7331:7415   */\n      tag_160\n      jumpi\n        /* \"#utility.yul\":7387:7405   */\n      tag_161\n      tag_64\n      jump\t// in\n    tag_161:\n        /* \"#utility.yul\":7331:7415   */\n    tag_160:\n        /* \"#utility.yul\":7152:7421   */\n      pop\n        /* \"#utility.yul\":7101:7421   */\n      swap2\n      swap1\n      pop\n      jump\t// out\n        /* \"#utility.yul\":7427:7568   */\n    tag_65:\n        /* \"#utility.yul\":7476:7480   */\n      0x00\n        /* \"#utility.yul\":7499:7502   */\n      dup2\n        /* \"#utility.yul\":7491:7502   */\n      swap1\n      pop\n        /* \"#utility.yul\":7522:7525   */\n      dup2\n        /* \"#utility.yul\":7519:7520   */\n      0x00\n        /* \"#utility.yul\":7512:7526   */\n      mstore\n        /* \"#utility.yul\":7556:7560   */\n      0x20\n        /* \"#utility.yul\":7553:7554   */\n      0x00\n        /* \"#utility.yul\":7543:7561   */\n      keccak256\n        /* \"#utility.yul\":7535:7561   */\n      swap1\n      pop\n        /* \"#utility.yul\":7427:7568   */\n      swap2\n      swap1\n      pop\n      jump\t// out\n        /* \"#utility.yul\":7574:7667   */\n    tag_66:\n        /* \"#utility.yul\":7611:7617   */\n      0x00\n        /* \"#utility.yul\":7658:7660   */\n      0x20\n        /* \"#utility.yul\":7653:7655   */\n      0x1f\n        /* \"#utility.yul\":7646:7651   */\n      dup4\n        /* \"#utility.yul\":7642:7656   */\n      add\n        /* \"#utility.yul\":7638:7661   */\n      div\n        /* \"#utility.yul\":7628:7661   */\n      swap1\n      pop\n        /* \"#utility.yul\":7574:7667   */\n      swap2\n      swap1\n      pop\n      jump\t// out\n        /* \"#utility.yul\":7673:7780   */\n    tag_67:\n        /* \"#utility.yul\":7717:7725   */\n      0x00\n        /* \"#utility.yul\":7767:7772   */\n      dup3\n        /* \"#utility.yul\":7761:7765   */\n      dup3\n        /* \"#utility.yul\":7757:7773   */\n      shl\n        /* \"#utility.yul\":7736:7773   */\n      swap1\n      pop\n        /* \"#utility.yul\":7673:7780   */\n      swap3\n      swap2\n      pop\n      pop\n      jump\t// out\n        /* \"#utility.yul\":7786:8179   */\n    tag_68:\n        /* \"#utility.yul\":7855:7861   */\n      0x00\n        /* \"#utility.yul\":7905:7906   */\n      0x08\n        /* \"#utility.yul\":7893:7903   */\n      dup4\n        /* \"#utility.yul\":7889:7907   */\n      mul\n        /* \"#utility.yul\":7928:8025   */\n      tag_166\n        /* \"#utility.yul\":7958:8024   */\n      0xffffffffffffffffffffffffffffffffffffffffffffffffffffffffffffffff\n        /* \"#utility.yul\":7947:7956   */\n      dup3\n        /* \"#utility.yul\":7928:8025   */\n      tag_67\n      jump\t// in\n    tag_166:\n        /* \"#utility.yul\":8046:8085   */\n      tag_167\n        /* \"#utility.yul\":8076:8084   */\n      dup7\n        /* \"#utility.yul\":8065:8074   */\n      dup4\n        /* \"#utility.yul\":8046:8085   */\n      tag_67\n      jump\t// in\n    tag_167:\n        /* \"#utility.yul\":8034:8085   */\n      swap6\n      pop\n        /* \"#utility.yul\":8118:8122   */\n      dup1\n        /* \"#utility.yul\":8114:8123   */\n      not\n        /* \"#utility.yul\":8107:8112   */\n      dup5\n        /* \"#utility.yul\":8103:8124   */\n      and\n        /* \"#utility.yul\":8094:8124   */\n      swap4\n      pop\n        /* \"#utility.yul\":8167:8171   */\n      dup1\n        /* \"#utility.yul\":8157:8165   */\n      dup7\n        /* \"#utility.yul\":8153:8172   */\n      and\n        /* \"#utility.yul\":8146:8151   */\n      dup5\n        /* \"#utility.yul\":8143:8173   */\n      or\n        /* \"#utility.yul\":8133:8173   */\n      swap3\n      pop\n        /* \"#utility.yul\":7862:8179   */\n      pop\n      pop\n        /* \"#utility.yul\":7786:8179   */\n      swap4\n      swap3\n      pop\n      pop\n      pop\n      jump\t// out\n        /* \"#utility.yul\":8185:8245   */\n    tag_69:\n        /* \"#utility.yul\":8213:8216   */\n      0x00\n        /* \"#utility.yul\":8234:8239   */\n      dup2\n        /* \"#utility.yul\":8227:8239   */\n      swap1\n      pop\n        /* \"#utility.yul\":8185:8245   */\n      swap2\n      swap1\n      pop\n      jump\t// out\n        /* \"#utility.yul\":8251:8393   */\n    tag_70:\n        /* \"#utility.yul\":8301:8310   */\n      0x00\n        /* \"#utility.yul\":8334:8387   */\n      tag_170\n        /* \"#utility.yul\":8352:8386   */\n      tag_171\n        /* \"#utility.yul\":8361:8385   */\n      tag_172\n        /* \"#utility.yul\":8379:8384   */\n      dup5\n        /* \"#utility.yul\":8361:8385   */\n      tag_42\n      jump\t// in\n    tag_172:\n        /* \"#utility.yul\":8352:8386   */\n      tag_69\n      jump\t// in\n    tag_171:\n        /* \"#utility.yul\":8334:8387   */\n      tag_42\n      jump\t// in\n    tag_170:\n        /* \"#utility.yul\":8321:8387   */\n      swap1\n      pop\n        /* \"#utility.yul\":8251:8393   */\n      swap2\n      swap1\n      pop\n      jump\t// out\n        /* \"#utility.yul\":8399:8474   */\n    tag_71:\n        /* \"#utility.yul\":8442:8445   */\n      0x00\n        /* \"#utility.yul\":8463:8468   */\n      dup2\n        /* \"#utility.yul\":8456:8468   */\n      swap1\n      pop\n        /* \"#utility.yul\":8399:8474   */\n      swap2\n      swap1\n      pop\n      jump\t// out\n        /* \"#utility.yul\":8480:8749   */\n    tag_72:\n        /* \"#utility.yul\":8590:8629   */\n      tag_175\n        /* \"#utility.yul\":8621:8628   */\n      dup4\n        /* \"#utility.yul\":8590:8629   */\n      tag_70\n      jump\t// in\n    tag_175:\n        /* \"#utility.yul\":8651:8742   */\n      tag_176\n        /* \"#utility.yul\":8700:8741   */\n      tag_177\n        /* \"#utility.yul\":8724:8740   */\n      dup3\n        /* \"#utility.yul\":8700:8741   */\n      tag_71\n      jump\t// in\n    tag_177:\n        /* \"#utility.yul\":8692:8698   */\n      dup5\n        /* \"#utility.yul\":8685:8689   */\n      dup5\n        /* \"#utility.yul\":8679:8690   */\n      sload\n        /* \"#utility.yul\":8651:8742   */\n      tag_68\n      jump\t// in\n    tag_176:\n        /* \"#utility.yul\":8645:8649   */\n      dup3\n        /* \"#utility.yul\":8638:8743   */\n      sstore\n        /* \"#utility.yul\":8556:8749   */\n      pop\n        /* \"#utility.yul\":8480:8749   */\n      pop\n      pop\n      pop\n      jump\t// out\n        /* \"#utility.yul\":8755:8828   */\n    tag_73:\n        /* \"#utility.yul\":8800:8803   */\n      0x00\n        /* \"#utility.yul\":8821:8822   */\n      0x00\n        /* \"#utility.yul\":8814:8822   */\n      swap1\n      pop\n        /* \"#utility.yul\":8755:8828   */\n      swap1\n      jump\t// out\n        /* \"#utility.yul\":8834:9023   */\n    tag_74:\n        /* \"#utility.yul\":8911:8943   */\n      tag_180\n      tag_73\n      jump\t// in\n    tag_180:\n        /* \"#utility.yul\":8952:9017   */\n      tag_181\n        /* \"#utility.yul\":9010:9016   */\n      dup2\n        /* \"#utility.yul\":9002:9008   */\n      dup5\n        /* \"#utility.yul\":8996:9000   */\n      dup5\n        /* \"#utility.yul\":8952:9017   */\n      tag_72\n      jump\t// in\n    tag_181:\n        /* \"#utility.yul\":8887:9023   */\n      pop\n        /* \"#utility.yul\":8834:9023   */\n      pop\n      pop\n      jump\t// out\n        /* \"#utility.yul\":9029:9215   */\n    tag_75:\n        /* \"#utility.yul\":9089:9209   */\n    tag_183:\n        /* \"#utility.yul\":9106:9109   */\n      dup2\n        /* \"#utility.yul\":9099:9104   */\n      dup2\n        /* \"#utility.yul\":9096:9110   */\n      lt\n        /* \"#utility.yul\":9089:9209   */\n      iszero\n      tag_185\n      jumpi\n        /* \"#utility.yul\":9160:9199   */\n      tag_186\n        /* \"#utility.yul\":9197:9198   */\n      0x00\n        /* \"#utility.yul\":9190:9195   */\n      dup3\n        /* \"#utility.yul\":9160:9199   */\n      tag_74\n      jump\t// in\n    tag_186:\n        /* \"#utility.yul\":9133:9134   */\n      0x01\n        /* \"#utility.yul\":9126:9131   */\n      dup2\n        /* \"#utility.yul\":9122:9135   */\n      add\n        /* \"#utility.yul\":9113:9135   */\n      swap1\n      pop\n        /* \"#utility.yul\":9089:9209   */\n      jump(tag_183)\n    tag_185:\n        /* \"#utility.yul\":9029:9215   */\n      pop\n      pop\n      jump\t// out\n        /* \"#utility.yul\":9221:9764   */\n    tag_76:\n        /* \"#utility.yul\":9322:9324   */\n      0x1f\n        /* \"#utility.yul\":9317:9320   */\n      dup3\n        /* \"#utility.yul\":9314:9325   */\n      gt\n        /* \"#utility.yul\":9311:9757   */\n      iszero\n      tag_188\n      jumpi\n        /* \"#utility.yul\":9356:9394   */\n      tag_189\n        /* \"#utility.yul\":9388:9393   */\n      dup2\n        /* \"#utility.yul\":9356:9394   */\n      tag_65\n      jump\t// in\n    tag_189:\n        /* \"#utility.yul\":9440:9469   */\n      tag_190\n        /* \"#utility.yul\":9458:9468   */\n      dup5\n        /* \"#utility.yul\":9440:9469   */\n      tag_66\n      jump\t// in\n    tag_190:\n        /* \"#utility.yul\":9430:9438   */\n      dup2\n        /* \"#utility.yul\":9426:9470   */\n      add\n        /* \"#utility.yul\":9623:9625   */\n      0x20\n        /* \"#utility.yul\":9611:9621   */\n      dup6\n        /* \"#utility.yul\":9608:9626   */\n      lt\n        /* \"#utility.yul\":9605:9654   */\n      iszero\n      tag_191\n      jumpi\n        /* \"#utility.yul\":9644:9652   */\n      dup2\n        /* \"#utility.yul\":9629:9652   */\n      swap1\n      pop\n        /* \"#utility.yul\":9605:9654   */\n    tag_191:\n        /* \"#utility.yul\":9667:9747   */\n      tag_192\n        /* \"#utility.yul\":9723:9745   */\n      tag_193\n        /* \"#utility.yul\":9741:9744   */\n      dup6\n        /* \"#utility.yul\":9723:9745   */\n      tag_66\n      jump\t// in\n    tag_193:\n        /* \"#utility.yul\":9713:9721   */\n      dup4\n        /* \"#utility.yul\":9709:9746   */\n      add\n        /* \"#utility.yul\":9696:9707   */\n      dup3\n        /* \"#utility.yul\":9667:9747   */\n      tag_75\n      jump\t// in\n    tag_192:\n        /* \"#utility.yul\":9326:9757   */\n      pop\n      pop\n        /* \"#utility.yul\":9311:9757   */\n    tag_188:\n        /* \"#utility.yul\":9221:9764   */\n      pop\n      pop\n      pop\n      jump\t// out\n        /* \"#utility.yul\":9770:9887   */\n    tag_77:\n        /* \"#utility.yul\":9824:9832   */\n      0x00\n        /* \"#utility.yul\":9874:9879   */\n      dup3\n        /* \"#utility.yul\":9868:9872   */\n      dup3\n        /* \"#utility.yul\":9864:9880   */\n      shr\n        /* \"#utility.yul\":9843:9880   */\n      swap1\n      pop\n        /* \"#utility.yul\":9770:9887   */\n      swap3\n      swap2\n      pop\n      pop\n      jump\t// out\n        /* \"#utility.yul\":9893:10062   */\n    tag_78:\n        /* \"#utility.yul\":9937:9943   */\n      0x00\n        /* \"#utility.yul\":9970:10021   */\n      tag_196\n        /* \"#utility.yul\":10018:10019   */\n      0x00\n        /* \"#utility.yul\":10014:10020   */\n      not\n        /* \"#utility.yul\":10006:10011   */\n      dup5\n        /* \"#utility.yul\":10003:10004   */\n      0x08\n        /* \"#utility.yul\":9999:10012   */\n      mul\n        /* \"#utility.yul\":9970:10021   */\n      tag_77\n      jump\t// in\n    tag_196:\n        /* \"#utility.yul\":9966:10022   */\n      not\n        /* \"#utility.yul\":10051:10055   */\n      dup1\n        /* \"#utility.yul\":10045:10049   */\n      dup4\n        /* \"#utility.yul\":10041:10056   */\n      and\n        /* \"#utility.yul\":10031:10056   */\n      swap2\n      pop\n        /* \"#utility.yul\":9944:10062   */\n      pop\n        /* \"#utility.yul\":9893:10062   */\n      swap3\n      swap2\n      pop\n      pop\n      jump\t// out\n        /* \"#utility.yul\":10067:10362   */\n    tag_79:\n        /* \"#utility.yul\":10143:10147   */\n      0x00\n        /* \"#utility.yul\":10289:10318   */\n      tag_198\n        /* \"#utility.yul\":10314:10317   */\n      dup4\n        /* \"#utility.yul\":10308:10312   */\n      dup4\n        /* \"#utility.yul\":10289:10318   */\n      tag_78\n      jump\t// in\n    tag_198:\n        /* \"#utility.yul\":10281:10318   */\n      swap2\n      pop\n        /* \"#utility.yul\":10351:10354   */\n      dup3\n        /* \"#utility.yul\":10348:10349   */\n      0x02\n        /* \"#utility.yul\":10344:10355   */\n      mul\n        /* \"#utility.yul\":10338:10342   */\n      dup3\n        /* \"#utility.yul\":10335:10356   */\n      or\n        /* \"#utility.yul\":10327:10356   */\n      swap1\n      pop\n        /* \"#utility.yul\":10067:10362   */\n      swap3\n      swap2\n      pop\n      pop\n      jump\t// out\n        /* \"#utility.yul\":10367:11762   */\n    tag_26:\n        /* \"#utility.yul\":10484:10521   */\n      tag_200\n        /* \"#utility.yul\":10517:10520   */\n      dup3\n        /* \"#utility.yul\":10484:10521   */\n      tag_59\n      jump\t// in\n    tag_200:\n        /* \"#utility.yul\":10586:10604   */\n      0xffffffffffffffff\n        /* \"#utility.yul\":10578:10584   */\n      dup2\n        /* \"#utility.yul\":10575:10605   */\n      gt\n        /* \"#utility.yul\":10572:10628   */\n      iszero\n      tag_201\n      jumpi\n        /* \"#utility.yul\":10608:10626   */\n      tag_202\n      tag_48\n      jump\t// in\n    tag_202:\n        /* \"#utility.yul\":10572:10628   */\n    tag_201:\n        /* \"#utility.yul\":10652:10690   */\n      tag_203\n        /* \"#utility.yul\":10684:10688   */\n      dup3\n        /* \"#utility.yul\":10678:10689   */\n      sload\n        /* \"#utility.yul\":10652:10690   */\n      tag_29\n      jump\t// in\n    tag_203:\n        /* \"#utility.yul\":10737:10804   */\n      tag_204\n        /* \"#utility.yul\":10797:10803   */\n      dup3\n        /* \"#utility.yul\":10789:10795   */\n      dup3\n        /* \"#utility.yul\":10783:10787   */\n      dup6\n        /* \"#utility.yul\":10737:10804   */\n      tag_76\n      jump\t// in\n    tag_204:\n        /* \"#utility.yul\":10831:10832   */\n      0x00\n        /* \"#utility.yul\":10855:10859   */\n      0x20\n        /* \"#utility.yul\":10842:10859   */\n      swap1\n      pop\n        /* \"#utility.yul\":10887:10889   */\n      0x1f\n        /* \"#utility.yul\":10879:10885   */\n      dup4\n        /* \"#utility.yul\":10876:10890   */\n      gt\n        /* \"#utility.yul\":10904:10905   */\n      0x01\n        /* \"#utility.yul\":10899:11517   */\n      dup2\n      eq\n      tag_206\n      jumpi\n        /* \"#utility.yul\":11561:11562   */\n      0x00\n        /* \"#utility.yul\":11578:11584   */\n      dup5\n        /* \"#utility.yul\":11575:11652   */\n      iszero\n      tag_207\n      jumpi\n        /* \"#utility.yul\":11627:11636   */\n      dup3\n        /* \"#utility.yul\":11622:11625   */\n      dup8\n        /* \"#utility.yul\":11618:11637   */\n      add\n        /* \"#utility.yul\":11612:11638   */\n      mload\n        /* \"#utility.yul\":11603:11638   */\n      swap1\n      pop\n        /* \"#utility.yul\":11575:11652   */\n    tag_207:\n        /* \"#utility.yul\":11678:11745   */\n      tag_208\n        /* \"#utility.yul\":11738:11744   */\n      dup6\n        /* \"#utility.yul\":11731:11736   */\n      dup3\n        /* \"#utility.yul\":11678:11745   */\n      tag_79\n      jump\t// in\n    tag_208:\n        /* \"#utility.yul\":11672:11676   */\n      dup7\n        /* \"#utility.yul\":11665:11746   */\n      sstore\n        /* \"#utility.yul\":11534:11756   */\n      pop\n        /* \"#utility.yul\":10869:11756   */\n      jump(tag_205)\n        /* \"#utility.yul\":10899:11517   */\n    tag_206:\n        /* \"#utility.yul\":10951:10955   */\n      0x1f\n        /* \"#utility.yul\":10947:10956   */\n      not\n        /* \"#utility.yul\":10939:10945   */\n      dup5\n        /* \"#utility.yul\":10935:10957   */\n      and\n        /* \"#utility.yul\":10985:11022   */\n      tag_209\n        /* \"#utility.yul\":11017:11021   */\n      dup7\n        /* \"#utility.yul\":10985:11022   */\n      tag_65\n      jump\t// in\n    tag_209:\n        /* \"#utility.yul\":11044:11045   */\n      0x00\n        /* \"#utility.yul\":11058:11266   */\n    tag_210:\n        /* \"#utility.yul\":11072:11079   */\n      dup3\n        /* \"#utility.yul\":11069:11070   */\n      dup2\n        /* \"#utility.yul\":11066:11080   */\n      lt\n        /* \"#utility.yul\":11058:11266   */\n      iszero\n      tag_212\n      jumpi\n        /* \"#utility.yul\":11151:11160   */\n      dup5\n        /* \"#utility.yul\":11146:11149   */\n      dup10\n        /* \"#utility.yul\":11142:11161   */\n      add\n        /* \"#utility.yul\":11136:11162   */\n      mload\n        /* \"#utility.yul\":11128:11134   */\n      dup3\n        /* \"#utility.yul\":11121:11163   */\n      sstore\n        /* \"#utility.yul\":11202:11203   */\n      0x01\n        /* \"#utility.yul\":11194:11200   */\n      dup3\n        /* \"#utility.yul\":11190:11204   */\n      add\n        /* \"#utility.yul\":11180:11204   */\n      swap2\n      pop\n        /* \"#utility.yul\":11249:11251   */\n      0x20\n        /* \"#utility.yul\":11238:11247   */\n      dup6\n        /* \"#utility.yul\":11234:11252   */\n      add\n        /* \"#utility.yul\":11221:11252   */\n      swap5\n      pop\n        /* \"#utility.yul\":11095:11099   */\n      0x20\n        /* \"#utility.yul\":11092:11093   */\n      dup2\n        /* \"#utility.yul\":11088:11100   */\n      add\n        /* \"#utility.yul\":11083:11100   */\n      swap1\n      pop\n        /* \"#utility.yul\":11058:11266   */\n      jump(tag_210)\n    tag_212:\n        /* \"#utility.yul\":11294:11300   */\n      dup7\n        /* \"#utility.yul\":11285:11292   */\n      dup4\n        /* \"#utility.yul\":11282:11301   */\n      lt\n        /* \"#utility.yul\":11279:11458   */\n      iszero\n      tag_213\n      jumpi\n        /* \"#utility.yul\":11352:11361   */\n      dup5\n        /* \"#utility.yul\":11347:11350   */\n      dup10\n        /* \"#utility.yul\":11343:11362   */\n      add\n        /* \"#utility.yul\":11337:11363   */\n      mload\n        /* \"#utility.yul\":11395:11443   */\n      tag_214\n        /* \"#utility.yul\":11437:11441   */\n      0x1f\n        /* \"#utility.yul\":11429:11435   */\n      dup10\n        /* \"#utility.yul\":11425:11442   */\n      and\n        /* \"#utility.yul\":11414:11423   */\n      dup3\n        /* \"#utility.yul\":11395:11443   */\n      tag_78\n      jump\t// in\n    tag_214:\n        /* \"#utility.yul\":11387:11393   */\n      dup4\n        /* \"#utility.yul\":11380:11444   */\n      sstore\n        /* \"#utility.yul\":11302:11458   */\n      pop\n        /* \"#utility.yul\":11279:11458   */\n    tag_213:\n        /* \"#utility.yul\":11504:11505   */\n      0x01\n        /* \"#utility.yul\":11500:11501   */\n      0x02\n        /* \"#utility.yul\":11492:11498   */\n      dup9\n        /* \"#utility.yul\":11488:11502   */\n      mul\n        /* \"#utility.yul\":11484:11506   */\n      add\n        /* \"#utility.yul\":11478:11482   */\n      dup9\n        /* \"#utility.yul\":11471:11507   */\n      sstore\n        /* \"#utility.yul\":10906:11517   */\n      pop\n      pop\n      pop\n        /* \"#utility.yul\":10869:11756   */\n    tag_205:\n      pop\n        /* \"#utility.yul\":10459:11762   */\n      pop\n      pop\n      pop\n        /* \"#utility.yul\":10367:11762   */\n      pop\n      pop\n      jump\t// out\n\n    auxdata: 0xa2646970667358221220cef23408137f2662120be1af8d28fb542e802a175d99e5fd0a903071a25646ff64736f6c634300081f0033\n}\n",
				"bytecode": {
					"linkReferences": {},
					"object": "60806040525f5f553480156011575f5ffd5b50610a108061001f5f395ff3fe608060405234801561000f575f5ffd5b506004361061003f575f3560e01c80630a4809d2146100435780634f2be91f1461005f5780639c92c1b31461007d575b5f5ffd5b61005d600480360381019061005891906104cf565b6100b0565b005b6100676101b7565b6040516100749190610566565b60405180910390f35b6100976004803603810190610092919061057f565b6101bc565b6040516100a79493929190610649565b60405180910390f35b6100b8610313565b33815f019073ffffffffffffffffffffffffffffffffffffffff16908173ffffffffffffffffffffffffffffffffffffffff1681525050838160200181815250508281604001819052508181606001819052505f5f81548092919061011c906106c7565b91905055508060015f5f5481526020019081526020015f205f820151815f015f6101000a81548173ffffffffffffffffffffffffffffffffffffffff021916908373ffffffffffffffffffffffffffffffffffffffff160217905550602082015181600101556040820151816002019081610197919061090b565b5060608201518160030190816101ad919061090b565b5090505050505050565b5f5481565b6001602052805f5260405f205f91509050805f015f9054906101000a900473ffffffffffffffffffffffffffffffffffffffff16908060010154908060020180546102069061073b565b80601f01602080910402602001604051908101604052809291908181526020018280546102329061073b565b801561027d5780601f106102545761010080835404028352916020019161027d565b820191905f5260205f20905b81548152906001019060200180831161026057829003601f168201915b5050505050908060030180546102929061073b565b80601f01602080910402602001604051908101604052809291908181526020018280546102be9061073b565b80156103095780601f106102e057610100808354040283529160200191610309565b820191905f5260205f20905b8154815290600101906020018083116102ec57829003601f168201915b5050505050905084565b60405180608001604052805f73ffffffffffffffffffffffffffffffffffffffff1681526020015f815260200160608152602001606081525090565b5f604051905090565b5f5ffd5b5f5ffd5b5f819050919050565b61037281610360565b811461037c575f5ffd5b50565b5f8135905061038d81610369565b92915050565b5f5ffd5b5f5ffd5b5f601f19601f8301169050919050565b7f4e487b71000000000000000000000000000000000000000000000000000000005f52604160045260245ffd5b6103e18261039b565b810181811067ffffffffffffffff82111715610400576103ff6103ab565b5b80604052505050565b5f61041261034f565b905061041e82826103d8565b919050565b5f67ffffffffffffffff82111561043d5761043c6103ab565b5b6104468261039b565b9050602081019050919050565b828183375f83830152505050565b5f61047361046e84610423565b610409565b90508281526020810184848401111561048f5761048e610397565b5b61049a848285610453565b509392505050565b5f82601f8301126104b6576104b5610393565b5b81356104c6848260208601610461565b91505092915050565b5f5f5f606084860312156104e6576104e5610358565b5b5f6104f38682870161037f565b935050602084013567ffffffffffffffff8111156105145761051361035c565b5b610520868287016104a2565b925050604084013567ffffffffffffffff8111156105415761054061035c565b5b61054d868287016104a2565b9150509250925092565b61056081610360565b82525050565b5f6020820190506105795f830184610557565b92915050565b5f6020828403121561059457610593610358565b5b5f6105a18482850161037f565b91505092915050565b5f73ffffffffffffffffffffffffffffffffffffffff82169050919050565b5f6105d3826105aa565b9050919050565b6105e3816105c9565b82525050565b5f81519050919050565b5f82825260208201905092915050565b8281835e5f83830152505050565b5f61061b826105e9565b61062581856105f3565b9350610635818560208601610603565b61063e8161039b565b840191505092915050565b5f60808201905061065c5f8301876105da565b6106696020830186610557565b818103604083015261067b8185610611565b9050818103606083015261068f8184610611565b905095945050505050565b7f4e487b71000000000000000000000000000000000000000000000000000000005f52601160045260245ffd5b5f6106d182610360565b91507fffffffffffffffffffffffffffffffffffffffffffffffffffffffffffffffff82036107035761070261069a565b5b600182019050919050565b7f4e487b71000000000000000000000000000000000000000000000000000000005f52602260045260245ffd5b5f600282049050600182168061075257607f821691505b6020821081036107655761076461070e565b5b50919050565b5f819050815f5260205f209050919050565b5f6020601f8301049050919050565b5f82821b905092915050565b5f600883026107c77fffffffffffffffffffffffffffffffffffffffffffffffffffffffffffffffff8261078c565b6107d1868361078c565b95508019841693508086168417925050509392505050565b5f819050919050565b5f61080c61080761080284610360565b6107e9565b610360565b9050919050565b5f819050919050565b610825836107f2565b61083961083182610813565b848454610798565b825550505050565b5f5f905090565b610850610841565b61085b81848461081c565b505050565b5b8181101561087e576108735f82610848565b600181019050610861565b5050565b601f8211156108c3576108948161076b565b61089d8461077d565b810160208510156108ac578190505b6108c06108b88561077d565b830182610860565b50505b505050565b5f82821c905092915050565b5f6108e35f19846008026108c8565b1980831691505092915050565b5f6108fb83836108d4565b9150826002028217905092915050565b610914826105e9565b67ffffffffffffffff81111561092d5761092c6103ab565b5b610937825461073b565b610942828285610882565b5f60209050601f831160018114610973575f8415610961578287015190505b61096b85826108f0565b8655506109d2565b601f1984166109818661076b565b5f5b828110156109a857848901518255600182019150602085019450602081019050610983565b868310156109c557848901516109c1601f8916826108d4565b8355505b6001600288020188555050505b50505050505056fea2646970667358221220cef23408137f2662120be1af8d28fb542e802a175d99e5fd0a903071a25646ff64736f6c634300081f0033",
					"opcodes": "PUSH1 0x80 PUSH1 0x40 MSTORE PUSH0 PUSH0 SSTORE CALLVALUE DUP1 ISZERO PUSH1 0x11 JUMPI PUSH0 PUSH0 REVERT JUMPDEST POP PUSH2 0xA10 DUP1 PUSH2 0x1F PUSH0 CODECOPY PUSH0 RETURN INVALID PUSH1 0x80 PUSH1 0x40 MSTORE CALLVALUE DUP1 ISZERO PUSH2 0xF JUMPI PUSH0 PUSH0 REVERT JUMPDEST POP PUSH1 0x4 CALLDATASIZE LT PUSH2 0x3F JUMPI PUSH0 CALLDATALOAD PUSH1 0xE0 SHR DUP1 PUSH4 0xA4809D2 EQ PUSH2 0x43 JUMPI DUP1 PUSH4 0x4F2BE91F EQ PUSH2 0x5F JUMPI DUP1 PUSH4 0x9C92C1B3 EQ PUSH2 0x7D JUMPI JUMPDEST PUSH0 PUSH0 REVERT JUMPDEST PUSH2 0x5D PUSH1 0x4 DUP1 CALLDATASIZE SUB DUP2 ADD SWAP1 PUSH2 0x58 SWAP2 SWAP1 PUSH2 0x4CF JUMP JUMPDEST PUSH2 0xB0 JUMP JUMPDEST STOP JUMPDEST PUSH2 0x67 PUSH2 0x1B7 JUMP JUMPDEST PUSH1 0x40 MLOAD PUSH2 0x74 SWAP2 SWAP1 PUSH2 0x566 JUMP JUMPDEST PUSH1 0x40 MLOAD DUP1 SWAP2 SUB SWAP1 RETURN JUMPDEST PUSH2 0x97 PUSH1 0x4 DUP1 CALLDATASIZE SUB DUP2 ADD SWAP1 PUSH2 0x92 SWAP2 SWAP1 PUSH2 0x57F JUMP JUMPDEST PUSH2 0x1BC JUMP JUMPDEST PUSH1 0x40 MLOAD PUSH2 0xA7 SWAP5 SWAP4 SWAP3 SWAP2 SWAP1 PUSH2 0x649 JUMP JUMPDEST PUSH1 0x40 MLOAD DUP1 SWAP2 SUB SWAP1 RETURN JUMPDEST PUSH2 0xB8 PUSH2 0x313 JUMP JUMPDEST CALLER DUP2 PUSH0 ADD SWAP1 PUSH20 0xFFFFFFFFFFFFFFFFFFFFFFFFFFFFFFFFFFFFFFFF AND SWAP1 DUP2 PUSH20 0xFFFFFFFFFFFFFFFFFFFFFFFFFFFFFFFFFFFFFFFF AND DUP2 MSTORE POP POP DUP4 DUP2 PUSH1 0x20 ADD DUP2 DUP2 MSTORE POP POP DUP3 DUP2 PUSH1 0x40 ADD DUP2 SWAP1 MSTORE POP DUP2 DUP2 PUSH1 0x60 ADD DUP2 SWAP1 MSTORE POP PUSH0 PUSH0 DUP2 SLOAD DUP1 SWAP3 SWAP2 SWAP1 PUSH2 0x11C SWAP1 PUSH2 0x6C7 JUMP JUMPDEST SWAP2 SWAP1 POP SSTORE POP DUP1 PUSH1 0x1 PUSH0 PUSH0 SLOAD DUP2 MSTORE PUSH1 0x20 ADD SWAP1 DUP2 MSTORE PUSH1 0x20 ADD PUSH0 KECCAK256 PUSH0 DUP3 ADD MLOAD DUP2 PUSH0 ADD PUSH0 PUSH2 0x100 EXP DUP2 SLOAD DUP2 PUSH20 0xFFFFFFFFFFFFFFFFFFFFFFFFFFFFFFFFFFFFFFFF MUL NOT AND SWAP1 DUP4 PUSH20 0xFFFFFFFFFFFFFFFFFFFFFFFFFFFFFFFFFFFFFFFF AND MUL OR SWAP1 SSTORE POP PUSH1 0x20 DUP3 ADD MLOAD DUP2 PUSH1 0x1 ADD SSTORE PUSH1 0x40 DUP3 ADD MLOAD DUP2 PUSH1 0x2 ADD SWAP1 DUP2 PUSH2 0x197 SWAP2 SWAP1 PUSH2 0x90B JUMP JUMPDEST POP PUSH1 0x60 DUP3 ADD MLOAD DUP2 PUSH1 0x3 ADD SWAP1 DUP2 PUSH2 0x1AD SWAP2 SWAP1 PUSH2 0x90B JUMP JUMPDEST POP SWAP1 POP POP POP POP POP POP JUMP JUMPDEST PUSH0 SLOAD DUP2 JUMP JUMPDEST PUSH1 0x1 PUSH1 0x20 MSTORE DUP1 PUSH0 MSTORE PUSH1 0x40 PUSH0 KECCAK256 PUSH0 SWAP2 POP SWAP1 POP DUP1 PUSH0 ADD PUSH0 SWAP1 SLOAD SWAP1 PUSH2 0x100 EXP SWAP1 DIV PUSH20 0xFFFFFFFFFFFFFFFFFFFFFFFFFFFFFFFFFFFFFFFF AND SWAP1 DUP1 PUSH1 0x1 ADD SLOAD SWAP1 DUP1 PUSH1 0x2 ADD DUP1 SLOAD PUSH2 0x206 SWAP1 PUSH2 0x73B JUMP JUMPDEST DUP1 PUSH1 0x1F ADD PUSH1 0x20 DUP1 SWAP2 DIV MUL PUSH1 0x20 ADD PUSH1 0x40 MLOAD SWAP1 DUP2 ADD PUSH1 0x40 MSTORE DUP1 SWAP3 SWAP2 SWAP1 DUP2 DUP2 MSTORE PUSH1 0x20 ADD DUP3 DUP1 SLOAD PUSH2 0x232 SWAP1 PUSH2 0x73B JUMP JUMPDEST DUP1 ISZERO PUSH2 0x27D JUMPI DUP1 PUSH1 0x1F LT PUSH2 0x254 JUMPI PUSH2 0x100 DUP1 DUP4 SLOAD DIV MUL DUP4 MSTORE SWAP2 PUSH1 0x20 ADD SWAP2 PUSH2 0x27D JUMP JUMPDEST DUP3 ADD SWAP2 SWAP1 PUSH0 MSTORE PUSH1 0x20 PUSH0 KECCAK256 SWAP1 JUMPDEST DUP2 SLOAD DUP2 MSTORE SWAP1 PUSH1 0x1 ADD SWAP1 PUSH1 0x20 ADD DUP1 DUP4 GT PUSH2 0x260 JUMPI DUP3 SWAP1 SUB PUSH1 0x1F AND DUP3 ADD SWAP2 JUMPDEST POP POP POP POP POP SWAP1 DUP1 PUSH1 0x3 ADD DUP1 SLOAD PUSH2 0x292 SWAP1 PUSH2 0x73B JUMP JUMPDEST DUP1 PUSH1 0x1F ADD PUSH1 0x20 DUP1 SWAP2 DIV MUL PUSH1 0x20 ADD PUSH1 0x40 MLOAD SWAP1 DUP2 ADD PUSH1 0x40 MSTORE DUP1 SWAP3 SWAP2 SWAP1 DUP2 DUP2 MSTORE PUSH1 0x20 ADD DUP3 DUP1 SLOAD PUSH2 0x2BE SWAP1 PUSH2 0x73B JUMP JUMPDEST DUP1 ISZERO PUSH2 0x309 JUMPI DUP1 PUSH1 0x1F LT PUSH2 0x2E0 JUMPI PUSH2 0x100 DUP1 DUP4 SLOAD DIV MUL DUP4 MSTORE SWAP2 PUSH1 0x20 ADD SWAP2 PUSH2 0x309 JUMP JUMPDEST DUP3 ADD SWAP2 SWAP1 PUSH0 MSTORE PUSH1 0x20 PUSH0 KECCAK256 SWAP1 JUMPDEST DUP2 SLOAD DUP2 MSTORE SWAP1 PUSH1 0x1 ADD SWAP1 PUSH1 0x20 ADD DUP1 DUP4 GT PUSH2 0x2EC JUMPI DUP3 SWAP1 SUB PUSH1 0x1F AND DUP3 ADD SWAP2 JUMPDEST POP POP POP POP POP SWAP1 POP DUP5 JUMP JUMPDEST PUSH1 0x40 MLOAD DUP1 PUSH1 0x80 ADD PUSH1 0x40 MSTORE DUP1 PUSH0 PUSH20 0xFFFFFFFFFFFFFFFFFFFFFFFFFFFFFFFFFFFFFFFF AND DUP2 MSTORE PUSH1 0x20 ADD PUSH0 DUP2 MSTORE PUSH1 0x20 ADD PUSH1 0x60 DUP2 MSTORE PUSH1 0x20 ADD PUSH1 0x60 DUP2 MSTORE POP SWAP1 JUMP JUMPDEST PUSH0 PUSH1 0x40 MLOAD SWAP1 POP SWAP1 JUMP JUMPDEST PUSH0 PUSH0 REVERT JUMPDEST PUSH0 PUSH0 REVERT JUMPDEST PUSH0 DUP2 SWAP1 POP SWAP2 SWAP1 POP JUMP JUMPDEST PUSH2 0x372 DUP2 PUSH2 0x360 JUMP JUMPDEST DUP2 EQ PUSH2 0x37C JUMPI PUSH0 PUSH0 REVERT JUMPDEST POP JUMP JUMPDEST PUSH0 DUP2 CALLDATALOAD SWAP1 POP PUSH2 0x38D DUP2 PUSH2 0x369 JUMP JUMPDEST SWAP3 SWAP2 POP POP JUMP JUMPDEST PUSH0 PUSH0 REVERT JUMPDEST PUSH0 PUSH0 REVERT JUMPDEST PUSH0 PUSH1 0x1F NOT PUSH1 0x1F DUP4 ADD AND SWAP1 POP SWAP2 SWAP1 POP JUMP JUMPDEST PUSH32 0x4E487B7100000000000000000000000000000000000000000000000000000000 PUSH0 MSTORE PUSH1 0x41 PUSH1 0x4 MSTORE PUSH1 0x24 PUSH0 REVERT JUMPDEST PUSH2 0x3E1 DUP3 PUSH2 0x39B JUMP JUMPDEST DUP2 ADD DUP2 DUP2 LT PUSH8 0xFFFFFFFFFFFFFFFF DUP3 GT OR ISZERO PUSH2 0x400 JUMPI PUSH2 0x3FF PUSH2 0x3AB JUMP JUMPDEST JUMPDEST DUP1 PUSH1 0x40 MSTORE POP POP POP JUMP JUMPDEST PUSH0 PUSH2 0x412 PUSH2 0x34F JUMP JUMPDEST SWAP1 POP PUSH2 0x41E DUP3 DUP3 PUSH2 0x3D8 JUMP JUMPDEST SWAP2 SWAP1 POP JUMP JUMPDEST PUSH0 PUSH8 0xFFFFFFFFFFFFFFFF DUP3 GT ISZERO PUSH2 0x43D JUMPI PUSH2 0x43C PUSH2 0x3AB JUMP JUMPDEST JUMPDEST PUSH2 0x446 DUP3 PUSH2 0x39B JUMP JUMPDEST SWAP1 POP PUSH1 0x20 DUP2 ADD SWAP1 POP SWAP2 SWAP1 POP JUMP JUMPDEST DUP3 DUP2 DUP4 CALLDATACOPY PUSH0 DUP4 DUP4 ADD MSTORE POP POP POP JUMP JUMPDEST PUSH0 PUSH2 0x473 PUSH2 0x46E DUP5 PUSH2 0x423 JUMP JUMPDEST PUSH2 0x409 JUMP JUMPDEST SWAP1 POP DUP3 DUP2 MSTORE PUSH1 0x20 DUP2 ADD DUP5 DUP5 DUP5 ADD GT ISZERO PUSH2 0x48F JUMPI PUSH2 0x48E PUSH2 0x397 JUMP JUMPDEST JUMPDEST PUSH2 0x49A DUP5 DUP3 DUP6 PUSH2 0x453 JUMP JUMPDEST POP SWAP4 SWAP3 POP POP POP JUMP JUMPDEST PUSH0 DUP3 PUSH1 0x1F DUP4 ADD SLT PUSH2 0x4B6 JUMPI PUSH2 0x4B5 PUSH2 0x393 JUMP JUMPDEST JUMPDEST DUP2 CALLDATALOAD PUSH2 0x4C6 DUP5 DUP3 PUSH1 0x20 DUP7 ADD PUSH2 0x461 JUMP JUMPDEST SWAP2 POP POP SWAP3 SWAP2 POP POP JUMP JUMPDEST PUSH0 PUSH0 PUSH0 PUSH1 0x60 DUP5 DUP7 SUB SLT ISZERO PUSH2 0x4E6 JUMPI PUSH2 0x4E5 PUSH2 0x358 JUMP JUMPDEST JUMPDEST PUSH0 PUSH2 0x4F3 DUP7 DUP3 DUP8 ADD PUSH2 0x37F JUMP JUMPDEST SWAP4 POP POP PUSH1 0x20 DUP5 ADD CALLDATALOAD PUSH8 0xFFFFFFFFFFFFFFFF DUP2 GT ISZERO PUSH2 0x514 JUMPI PUSH2 0x513 PUSH2 0x35C JUMP JUMPDEST JUMPDEST PUSH2 0x520 DUP7 DUP3 DUP8 ADD PUSH2 0x4A2 JUMP JUMPDEST SWAP3 POP POP PUSH1 0x40 DUP5 ADD CALLDATALOAD PUSH8 0xFFFFFFFFFFFFFFFF DUP2 GT ISZERO PUSH2 0x541 JUMPI PUSH2 0x540 PUSH2 0x35C JUMP JUMPDEST JUMPDEST PUSH2 0x54D DUP7 DUP3 DUP8 ADD PUSH2 0x4A2 JUMP JUMPDEST SWAP2 POP POP SWAP3 POP SWAP3 POP SWAP3 JUMP JUMPDEST PUSH2 0x560 DUP2 PUSH2 0x360 JUMP JUMPDEST DUP3 MSTORE POP POP JUMP JUMPDEST PUSH0 PUSH1 0x20 DUP3 ADD SWAP1 POP PUSH2 0x579 PUSH0 DUP4 ADD DUP5 PUSH2 0x557 JUMP JUMPDEST SWAP3 SWAP2 POP POP JUMP JUMPDEST PUSH0 PUSH1 0x20 DUP3 DUP5 SUB SLT ISZERO PUSH2 0x594 JUMPI PUSH2 0x593 PUSH2 0x358 JUMP JUMPDEST JUMPDEST PUSH0 PUSH2 0x5A1 DUP5 DUP3 DUP6 ADD PUSH2 0x37F JUMP JUMPDEST SWAP2 POP POP SWAP3 SWAP2 POP POP JUMP JUMPDEST PUSH0 PUSH20 0xFFFFFFFFFFFFFFFFFFFFFFFFFFFFFFFFFFFFFFFF DUP3 AND SWAP1 POP SWAP2 SWAP1 POP JUMP JUMPDEST PUSH0 PUSH2 0x5D3 DUP3 PUSH2 0x5AA JUMP JUMPDEST SWAP1 POP SWAP2 SWAP1 POP JUMP JUMPDEST PUSH2 0x5E3 DUP2 PUSH2 0x5C9 JUMP JUMPDEST DUP3 MSTORE POP POP JUMP JUMPDEST PUSH0 DUP2 MLOAD SWAP1 POP SWAP2 SWAP1 POP JUMP JUMPDEST PUSH0 DUP3 DUP3 MSTORE PUSH1 0x20 DUP3 ADD SWAP1 POP SWAP3 SWAP2 POP POP JUMP JUMPDEST DUP3 DUP2 DUP4 MCOPY PUSH0 DUP4 DUP4 ADD MSTORE POP POP POP JUMP JUMPDEST PUSH0 PUSH2 0x61B DUP3 PUSH2 0x5E9 JUMP JUMPDEST PUSH2 0x625 DUP2 DUP6 PUSH2 0x5F3 JUMP JUMPDEST SWAP4 POP PUSH2 0x635 DUP2 DUP6 PUSH1 0x20 DUP7 ADD PUSH2 0x603 JUMP JUMPDEST PUSH2 0x63E DUP2 PUSH2 0x39B JUMP JUMPDEST DUP5 ADD SWAP2 POP POP SWAP3 SWAP2 POP POP JUMP JUMPDEST PUSH0 PUSH1 0x80 DUP3 ADD SWAP1 POP PUSH2 0x65C PUSH0 DUP4 ADD DUP8 PUSH2 0x5DA JUMP JUMPDEST PUSH2 0x669 PUSH1 0x20 DUP4 ADD DUP7 PUSH2 0x557 JUMP JUMPDEST DUP2 DUP2 SUB PUSH1 0x40 DUP4 ADD MSTORE PUSH2 0x67B DUP2 DUP6 PUSH2 0x611 JUMP JUMPDEST SWAP1 POP DUP2 DUP2 SUB PUSH1 0x60 DUP4 ADD MSTORE PUSH2 0x68F DUP2 DUP5 PUSH2 0x611 JUMP JUMPDEST SWAP1 POP SWAP6 SWAP5 POP POP POP POP POP JUMP JUMPDEST PUSH32 0x4E487B7100000000000000000000000000000000000000000000000000000000 PUSH0 MSTORE PUSH1 0x11 PUSH1 0x4 MSTORE PUSH1 0x24 PUSH0 REVERT JUMPDEST PUSH0 PUSH2 0x6D1 DUP3 PUSH2 0x360 JUMP JUMPDEST SWAP2 POP PUSH32 0xFFFFFFFFFFFFFFFFFFFFFFFFFFFFFFFFFFFFFFFFFFFFFFFFFFFFFFFFFFFFFFFF DUP3 SUB PUSH2 0x703 JUMPI PUSH2 0x702 PUSH2 0x69A JUMP JUMPDEST JUMPDEST PUSH1 0x1 DUP3 ADD SWAP1 POP SWAP2 SWAP1 POP JUMP JUMPDEST PUSH32 0x4E487B7100000000000000000000000000000000000000000000000000000000 PUSH0 MSTORE PUSH1 0x22 PUSH1 0x4 MSTORE PUSH1 0x24 PUSH0 REVERT JUMPDEST PUSH0 PUSH1 0x2 DUP3 DIV SWAP1 POP PUSH1 0x1 DUP3 AND DUP1 PUSH2 0x752 JUMPI PUSH1 0x7F DUP3 AND SWAP2 POP JUMPDEST PUSH1 0x20 DUP3 LT DUP2 SUB PUSH2 0x765 JUMPI PUSH2 0x764 PUSH2 0x70E JUMP JUMPDEST JUMPDEST POP SWAP2 SWAP1 POP JUMP JUMPDEST PUSH0 DUP2 SWAP1 POP DUP2 PUSH0 MSTORE PUSH1 0x20 PUSH0 KECCAK256 SWAP1 POP SWAP2 SWAP1 POP JUMP JUMPDEST PUSH0 PUSH1 0x20 PUSH1 0x1F DUP4 ADD DIV SWAP1 POP SWAP2 SWAP1 POP JUMP JUMPDEST PUSH0 DUP3 DUP3 SHL SWAP1 POP SWAP3 SWAP2 POP POP JUMP JUMPDEST PUSH0 PUSH1 0x8 DUP4 MUL PUSH2 0x7C7 PUSH32 0xFFFFFFFFFFFFFFFFFFFFFFFFFFFFFFFFFFFFFFFFFFFFFFFFFFFFFFFFFFFFFFFF DUP3 PUSH2 0x78C JUMP JUMPDEST PUSH2 0x7D1 DUP7 DUP4 PUSH2 0x78C JUMP JUMPDEST SWAP6 POP DUP1 NOT DUP5 AND SWAP4 POP DUP1 DUP7 AND DUP5 OR SWAP3 POP POP POP SWAP4 SWAP3 POP POP POP JUMP JUMPDEST PUSH0 DUP2 SWAP1 POP SWAP2 SWAP1 POP JUMP JUMPDEST PUSH0 PUSH2 0x80C PUSH2 0x807 PUSH2 0x802 DUP5 PUSH2 0x360 JUMP JUMPDEST PUSH2 0x7E9 JUMP JUMPDEST PUSH2 0x360 JUMP JUMPDEST SWAP1 POP SWAP2 SWAP1 POP JUMP JUMPDEST PUSH0 DUP2 SWAP1 POP SWAP2 SWAP1 POP JUMP JUMPDEST PUSH2 0x825 DUP4 PUSH2 0x7F2 JUMP JUMPDEST PUSH2 0x839 PUSH2 0x831 DUP3 PUSH2 0x813 JUMP JUMPDEST DUP5 DUP5 SLOAD PUSH2 0x798 JUMP JUMPDEST DUP3 SSTORE POP POP POP POP JUMP JUMPDEST PUSH0 PUSH0 SWAP1 POP SWAP1 JUMP JUMPDEST PUSH2 0x850 PUSH2 0x841 JUMP JUMPDEST PUSH2 0x85B DUP2 DUP5 DUP5 PUSH2 0x81C JUMP JUMPDEST POP POP POP JUMP JUMPDEST JUMPDEST DUP2 DUP2 LT ISZERO PUSH2 0x87E JUMPI PUSH2 0x873 PUSH0 DUP3 PUSH2 0x848 JUMP JUMPDEST PUSH1 0x1 DUP2 ADD SWAP1 POP PUSH2 0x861 JUMP JUMPDEST POP POP JUMP JUMPDEST PUSH1 0x1F DUP3 GT ISZERO PUSH2 0x8C3 JUMPI PUSH2 0x894 DUP2 PUSH2 0x76B JUMP JUMPDEST PUSH2 0x89D DUP5 PUSH2 0x77D JUMP JUMPDEST DUP2 ADD PUSH1 0x20 DUP6 LT ISZERO PUSH2 0x8AC JUMPI DUP2 SWAP1 POP JUMPDEST PUSH2 0x8C0 PUSH2 0x8B8 DUP6 PUSH2 0x77D JUMP JUMPDEST DUP4 ADD DUP3 PUSH2 0x860 JUMP JUMPDEST POP POP JUMPDEST POP POP POP JUMP JUMPDEST PUSH0 DUP3 DUP3 SHR SWAP1 POP SWAP3 SWAP2 POP POP JUMP JUMPDEST PUSH0 PUSH2 0x8E3 PUSH0 NOT DUP5 PUSH1 0x8 MUL PUSH2 0x8C8 JUMP JUMPDEST NOT DUP1 DUP4 AND SWAP2 POP POP SWAP3 SWAP2 POP POP JUMP JUMPDEST PUSH0 PUSH2 0x8FB DUP4 DUP4 PUSH2 0x8D4 JUMP JUMPDEST SWAP2 POP DUP3 PUSH1 0x2 MUL DUP3 OR SWAP1 POP SWAP3 SWAP2 POP POP JUMP JUMPDEST PUSH2 0x914 DUP3 PUSH2 0x5E9 JUMP JUMPDEST PUSH8 0xFFFFFFFFFFFFFFFF DUP2 GT ISZERO PUSH2 0x92D JUMPI PUSH2 0x92C PUSH2 0x3AB JUMP JUMPDEST JUMPDEST PUSH2 0x937 DUP3 SLOAD PUSH2 0x73B JUMP JUMPDEST PUSH2 0x942 DUP3 DUP3 DUP6 PUSH2 0x882 JUMP JUMPDEST PUSH0 PUSH1 0x20 SWAP1 POP PUSH1 0x1F DUP4 GT PUSH1 0x1 DUP2 EQ PUSH2 0x973 JUMPI PUSH0 DUP5 ISZERO PUSH2 0x961 JUMPI DUP3 DUP8 ADD MLOAD SWAP1 POP JUMPDEST PUSH2 0x96B DUP6 DUP3 PUSH2 0x8F0 JUMP JUMPDEST DUP7 SSTORE POP PUSH2 0x9D2 JUMP JUMPDEST PUSH1 0x1F NOT DUP5 AND PUSH2 0x981 DUP7 PUSH2 0x76B JUMP JUMPDEST PUSH0 JUMPDEST DUP3 DUP2 LT ISZERO PUSH2 0x9A8 JUMPI DUP5 DUP10 ADD MLOAD DUP3 SSTORE PUSH1 0x1 DUP3 ADD SWAP2 POP PUSH1 0x20 DUP6 ADD SWAP5 POP PUSH1 0x20 DUP2 ADD SWAP1 POP PUSH2 0x983 JUMP JUMPDEST DUP7 DUP4 LT ISZERO PUSH2 0x9C5 JUMPI DUP5 DUP10 ADD MLOAD PUSH2 0x9C1 PUSH1 0x1F DUP10 AND DUP3 PUSH2 0x8D4 JUMP JUMPDEST DUP4 SSTORE POP JUMPDEST PUSH1 0x1 PUSH1 0x2 DUP9 MUL ADD DUP9 SSTORE POP POP POP JUMPDEST POP POP POP POP POP POP JUMP INVALID LOG2 PUSH5 0x6970667358 0x22 SLT KECCAK256 0xCE CALLCODE CALLVALUE ADDMOD SGT PUSH32 0x2662120BE1AF8D28FB542E802A175D99E5FD0A903071A25646FF64736F6C6343 STOP ADDMOD 0x1F STOP CALLER "
				},
				"gasEstimates": {
					"creation": {
						"codeDepositCost": "515200",
						"executionCost": "5551",
						"totalCost": "520751"
					},
					"external": {
						"Pessoas(uint256)": "infinite",
						"add()": "2424",
						"addp(uint256,string,string)": "infinite"
					}
				},
				"methodIdentifiers": {
					"Pessoas(uint256)": "9c92c1b3",
					"add()": "4f2be91f",
					"addp(uint256,string,string)": "0a4809d2"
				}
			},
			"storageLayout": {
				"storage": [
					{
						"astId": 13,
						"contract": "contracts/teste.sol:test",
						"label": "add",
						"offset": 0,
						"slot": "0",
						"type": "t_uint256"
					},
					{
						"astId": 18,
						"contract": "contracts/teste.sol:test",
						"label": "Pessoas",
						"offset": 0,
						"slot": "1",
						"type": "t_mapping(t_uint256,t_struct(people)10_storage)"
					}
				],
				"types": {
					"t_address": {
						"encoding": "inplace",
						"label": "address",
						"numberOfBytes": "20"
					},
					"t_mapping(t_uint256,t_struct(people)10_storage)": {
						"encoding": "mapping",
						"key": "t_uint256",
						"label": "mapping(uint256 => struct people)",
						"numberOfBytes": "32",
						"value": "t_struct(people)10_storage"
					},
					"t_string_storage": {
						"encoding": "bytes",
						"label": "string",
						"numberOfBytes": "32"
					},
					"t_struct(people)10_storage": {
						"encoding": "inplace",
						"label": "struct people",
						"members": [
							{
								"astId": 3,
								"contract": "contracts/teste.sol:test",
								"label": "id",
								"offset": 0,
								"slot": "0",
								"type": "t_address"
							},
							{
								"astId": 5,
								"contract": "contracts/teste.sol:test",
								"label": "cpf",
								"offset": 0,
								"slot": "1",
								"type": "t_uint256"
							},
							{
								"astId": 7,
								"contract": "contracts/teste.sol:test",
								"label": "name",
								"offset": 0,
								"slot": "2",
								"type": "t_string_storage"
							},
							{
								"astId": 9,
								"contract": "contracts/teste.sol:test",
								"label": "email",
								"offset": 0,
								"slot": "3",
								"type": "t_string_storage"
							}
						],
						"numberOfBytes": "128"
					},
					"t_uint256": {
						"encoding": "inplace",
						"label": "uint256",
						"numberOfBytes": "32"
					}
				}
			},
			"userdoc": {
				"kind": "user",
				"methods": {},
				"version": 1
			}
		}
	}
}